{
  "_format": "hh-sol-artifact-1",
  "contractName": "PriorityTimelockExecutorMixin",
  "sourceName": "contracts/governance/executor/PriorityTimelockExecutorMixin.sol",
  "abi": [
    {
      "inputs": [
        {
          "internalType": "address",
          "name": "admin",
          "type": "address"
        },
        {
          "internalType": "uint256",
          "name": "delay",
          "type": "uint256"
        },
        {
          "internalType": "uint256",
          "name": "gracePeriod",
          "type": "uint256"
        },
        {
          "internalType": "uint256",
          "name": "minimumDelay",
          "type": "uint256"
        },
        {
          "internalType": "uint256",
          "name": "maximumDelay",
          "type": "uint256"
        },
        {
          "internalType": "uint256",
          "name": "priorityPeriod",
          "type": "uint256"
        },
        {
          "internalType": "address",
          "name": "priorityController",
          "type": "address"
        }
      ],
      "stateMutability": "nonpayable",
      "type": "constructor"
    },
    {
      "anonymous": false,
      "inputs": [
        {
          "indexed": false,
          "internalType": "bytes32",
          "name": "actionHash",
          "type": "bytes32"
        },
        {
          "indexed": true,
          "internalType": "address",
          "name": "target",
          "type": "address"
        },
        {
          "indexed": false,
          "internalType": "uint256",
          "name": "value",
          "type": "uint256"
        },
        {
          "indexed": false,
          "internalType": "string",
          "name": "signature",
          "type": "string"
        },
        {
          "indexed": false,
          "internalType": "bytes",
          "name": "data",
          "type": "bytes"
        },
        {
          "indexed": false,
          "internalType": "uint256",
          "name": "executionTime",
          "type": "uint256"
        },
        {
          "indexed": false,
          "internalType": "bool",
          "name": "withDelegatecall",
          "type": "bool"
        }
      ],
      "name": "CancelledAction",
      "type": "event"
    },
    {
      "anonymous": false,
      "inputs": [
        {
          "indexed": false,
          "internalType": "bytes32",
          "name": "actionHash",
          "type": "bytes32"
        },
        {
          "indexed": true,
          "internalType": "address",
          "name": "target",
          "type": "address"
        },
        {
          "indexed": false,
          "internalType": "uint256",
          "name": "value",
          "type": "uint256"
        },
        {
          "indexed": false,
          "internalType": "string",
          "name": "signature",
          "type": "string"
        },
        {
          "indexed": false,
          "internalType": "bytes",
          "name": "data",
          "type": "bytes"
        },
        {
          "indexed": false,
          "internalType": "uint256",
          "name": "executionTime",
          "type": "uint256"
        },
        {
          "indexed": false,
          "internalType": "bool",
          "name": "withDelegatecall",
          "type": "bool"
        },
        {
          "indexed": false,
          "internalType": "bytes",
          "name": "resultData",
          "type": "bytes"
        }
      ],
      "name": "ExecutedAction",
      "type": "event"
    },
    {
      "anonymous": false,
      "inputs": [
        {
          "indexed": false,
          "internalType": "address",
          "name": "newAdmin",
          "type": "address"
        }
      ],
      "name": "NewAdmin",
      "type": "event"
    },
    {
      "anonymous": false,
      "inputs": [
        {
          "indexed": false,
          "internalType": "uint256",
          "name": "delay",
          "type": "uint256"
        }
      ],
      "name": "NewDelay",
      "type": "event"
    },
    {
      "anonymous": false,
      "inputs": [
        {
          "indexed": false,
          "internalType": "address",
          "name": "newPendingAdmin",
          "type": "address"
        }
      ],
      "name": "NewPendingAdmin",
      "type": "event"
    },
    {
      "anonymous": false,
      "inputs": [
        {
          "indexed": false,
          "internalType": "uint256",
          "name": "priorityPeriod",
          "type": "uint256"
        }
      ],
      "name": "NewPriorityPeriod",
      "type": "event"
    },
    {
      "anonymous": false,
      "inputs": [
        {
          "indexed": false,
          "internalType": "address",
          "name": "account",
          "type": "address"
        },
        {
          "indexed": false,
          "internalType": "bool",
          "name": "isPriorityController",
          "type": "bool"
        }
      ],
      "name": "PriorityControllerUpdated",
      "type": "event"
    },
    {
      "anonymous": false,
      "inputs": [
        {
          "indexed": false,
          "internalType": "bytes32",
          "name": "actionHash",
          "type": "bytes32"
        },
        {
          "indexed": true,
          "internalType": "address",
          "name": "target",
          "type": "address"
        },
        {
          "indexed": false,
          "internalType": "uint256",
          "name": "value",
          "type": "uint256"
        },
        {
          "indexed": false,
          "internalType": "string",
          "name": "signature",
          "type": "string"
        },
        {
          "indexed": false,
          "internalType": "bytes",
          "name": "data",
          "type": "bytes"
        },
        {
          "indexed": false,
          "internalType": "uint256",
          "name": "executionTime",
          "type": "uint256"
        },
        {
          "indexed": false,
          "internalType": "bool",
          "name": "withDelegatecall",
          "type": "bool"
        }
      ],
      "name": "QueuedAction",
      "type": "event"
    },
    {
      "anonymous": false,
      "inputs": [
        {
          "indexed": false,
          "internalType": "bytes32",
          "name": "actionHash",
          "type": "bytes32"
        },
        {
          "indexed": false,
          "internalType": "bool",
          "name": "isUnlockedForExecution",
          "type": "bool"
        }
      ],
      "name": "UpdatedActionPriorityStatus",
      "type": "event"
    },
    {
      "inputs": [],
      "name": "GRACE_PERIOD",
      "outputs": [
        {
          "internalType": "uint256",
          "name": "",
          "type": "uint256"
        }
      ],
      "stateMutability": "view",
      "type": "function"
    },
    {
      "inputs": [],
      "name": "MAXIMUM_DELAY",
      "outputs": [
        {
          "internalType": "uint256",
          "name": "",
          "type": "uint256"
        }
      ],
      "stateMutability": "view",
      "type": "function"
    },
    {
      "inputs": [],
      "name": "MINIMUM_DELAY",
      "outputs": [
        {
          "internalType": "uint256",
          "name": "",
          "type": "uint256"
        }
      ],
      "stateMutability": "view",
      "type": "function"
    },
    {
      "inputs": [],
      "name": "acceptAdmin",
      "outputs": [],
      "stateMutability": "nonpayable",
      "type": "function"
    },
    {
      "inputs": [
        {
          "internalType": "address",
          "name": "target",
          "type": "address"
        },
        {
          "internalType": "uint256",
          "name": "value",
          "type": "uint256"
        },
        {
          "internalType": "string",
          "name": "signature",
          "type": "string"
        },
        {
          "internalType": "bytes",
          "name": "data",
          "type": "bytes"
        },
        {
          "internalType": "uint256",
          "name": "executionTime",
          "type": "uint256"
        },
        {
          "internalType": "bool",
          "name": "withDelegatecall",
          "type": "bool"
        }
      ],
      "name": "cancelTransaction",
      "outputs": [
        {
          "internalType": "bytes32",
          "name": "",
          "type": "bytes32"
        }
      ],
      "stateMutability": "nonpayable",
      "type": "function"
    },
    {
      "inputs": [
        {
          "internalType": "address",
          "name": "target",
          "type": "address"
        },
        {
          "internalType": "uint256",
          "name": "value",
          "type": "uint256"
        },
        {
          "internalType": "string",
          "name": "signature",
          "type": "string"
        },
        {
          "internalType": "bytes",
          "name": "data",
          "type": "bytes"
        },
        {
          "internalType": "uint256",
          "name": "executionTime",
          "type": "uint256"
        },
        {
          "internalType": "bool",
          "name": "withDelegatecall",
          "type": "bool"
        }
      ],
      "name": "executeTransaction",
      "outputs": [
        {
          "internalType": "bytes",
          "name": "",
          "type": "bytes"
        }
      ],
      "stateMutability": "payable",
      "type": "function"
    },
    {
      "inputs": [],
      "name": "getAdmin",
      "outputs": [
        {
          "internalType": "address",
          "name": "",
          "type": "address"
        }
      ],
      "stateMutability": "view",
      "type": "function"
    },
    {
      "inputs": [],
      "name": "getDelay",
      "outputs": [
        {
          "internalType": "uint256",
          "name": "",
          "type": "uint256"
        }
      ],
      "stateMutability": "view",
      "type": "function"
    },
    {
      "inputs": [],
      "name": "getPendingAdmin",
      "outputs": [
        {
          "internalType": "address",
          "name": "",
          "type": "address"
        }
      ],
      "stateMutability": "view",
      "type": "function"
    },
    {
      "inputs": [],
      "name": "getPriorityPeriod",
      "outputs": [
        {
          "internalType": "uint256",
          "name": "",
          "type": "uint256"
        }
      ],
      "stateMutability": "view",
      "type": "function"
    },
    {
      "inputs": [
        {
          "internalType": "bytes32",
          "name": "actionHash",
          "type": "bytes32"
        }
      ],
      "name": "hasPriorityStatus",
      "outputs": [
        {
          "internalType": "bool",
          "name": "",
          "type": "bool"
        }
      ],
      "stateMutability": "view",
      "type": "function"
    },
    {
      "inputs": [
        {
          "internalType": "bytes32",
          "name": "actionHash",
          "type": "bytes32"
        }
      ],
      "name": "isActionQueued",
      "outputs": [
        {
          "internalType": "bool",
          "name": "",
          "type": "bool"
        }
      ],
      "stateMutability": "view",
      "type": "function"
    },
    {
      "inputs": [
        {
          "internalType": "address",
          "name": "account",
          "type": "address"
        }
      ],
      "name": "isPriorityController",
      "outputs": [
        {
          "internalType": "bool",
          "name": "",
          "type": "bool"
        }
      ],
      "stateMutability": "view",
      "type": "function"
    },
    {
      "inputs": [
        {
          "internalType": "contract IDydxGovernor",
          "name": "governor",
          "type": "address"
        },
        {
          "internalType": "uint256",
          "name": "proposalId",
          "type": "uint256"
        }
      ],
      "name": "isProposalOverGracePeriod",
      "outputs": [
        {
          "internalType": "bool",
          "name": "",
          "type": "bool"
        }
      ],
      "stateMutability": "view",
      "type": "function"
    },
    {
      "inputs": [
        {
          "internalType": "address",
          "name": "target",
          "type": "address"
        },
        {
          "internalType": "uint256",
          "name": "value",
          "type": "uint256"
        },
        {
          "internalType": "string",
          "name": "signature",
          "type": "string"
        },
        {
          "internalType": "bytes",
          "name": "data",
          "type": "bytes"
        },
        {
          "internalType": "uint256",
          "name": "executionTime",
          "type": "uint256"
        },
        {
          "internalType": "bool",
          "name": "withDelegatecall",
          "type": "bool"
        }
      ],
      "name": "queueTransaction",
      "outputs": [
        {
          "internalType": "bytes32",
          "name": "",
          "type": "bytes32"
        }
      ],
      "stateMutability": "nonpayable",
      "type": "function"
    },
    {
      "inputs": [
        {
          "internalType": "uint256",
          "name": "delay",
          "type": "uint256"
        }
      ],
      "name": "setDelay",
      "outputs": [],
      "stateMutability": "nonpayable",
      "type": "function"
    },
    {
      "inputs": [
        {
          "internalType": "address",
          "name": "newPendingAdmin",
          "type": "address"
        }
      ],
      "name": "setPendingAdmin",
      "outputs": [],
      "stateMutability": "nonpayable",
      "type": "function"
    },
    {
      "inputs": [
        {
          "internalType": "uint256",
          "name": "priorityPeriod",
          "type": "uint256"
        }
      ],
      "name": "setPriorityPeriod",
      "outputs": [],
      "stateMutability": "nonpayable",
      "type": "function"
    },
    {
      "inputs": [
        {
          "internalType": "bytes32",
          "name": "actionHash",
          "type": "bytes32"
        },
        {
          "internalType": "bool",
          "name": "isUnlockedForExecution",
          "type": "bool"
        }
      ],
      "name": "setTransactionPriorityStatus",
      "outputs": [],
      "stateMutability": "nonpayable",
      "type": "function"
    },
    {
      "inputs": [
        {
          "internalType": "address",
          "name": "account",
          "type": "address"
        },
        {
          "internalType": "bool",
          "name": "isPriorityController",
          "type": "bool"
        }
      ],
      "name": "updatePriorityController",
      "outputs": [],
      "stateMutability": "nonpayable",
      "type": "function"
    },
    {
      "stateMutability": "payable",
      "type": "receive"
    }
  ],
  "bytecode": "0x60e06040523480156200001157600080fd5b5060405162001db838038062001db8833981016040819052620000349162000231565b83861015620000605760405162461bcd60e51b8152600401620000579062000308565b60405180910390fd5b82861115620000835760405162461bcd60e51b815260040162000057906200033f565b6200008f868362000189565b60038690556004829055600080546001600160a01b0319166001600160a01b038916179055608085905260a084905260c08390526040517f948b1f6a42ee138b7e34058ba85a37f716d55ff25ff05a763f15bed6a04c8d2c90620000f590889062000376565b60405180910390a17f6279abfddebfe84be8ab6bb12d0ca77fc5ba4965aacccd32aee7de1e02610ab2826040516200012e919062000376565b60405180910390a17f71614071b88dee5e0b2ae578a9dd7b2ebbe9ae832ba419dc0242cd065a290b6c8760405162000167919062000298565b60405180910390a16200017c816001620001b0565b505050505050506200037f565b81811115620001ac5760405162461bcd60e51b81526004016200005790620002c7565b5050565b6001600160a01b03821660009081526002602052604090819020805460ff1916831515179055517fe469250b7f36ac6fab7be7fde12f0cc324137d0727d31b9da72c0605c66d20cc90620002089084908490620002ac565b60405180910390a15050565b80516001600160a01b03811681146200022c57600080fd5b919050565b600080600080600080600060e0888a0312156200024c578283fd5b620002578862000214565b96506020880151955060408801519450606088015193506080880151925060a088015191506200028a60c0890162000214565b905092959891949750929550565b6001600160a01b0391909116815260200190565b6001600160a01b039290921682521515602082015260400190565b60208082526021908201527f5052494f524954595f504552494f445f4c4f4e4745525f5448414e5f44454c416040820152605960f81b606082015260800190565b6020808252601a908201527f44454c41595f53484f525445525f5448414e5f4d494e494d554d000000000000604082015260600190565b60208082526019908201527f44454c41595f4c4f4e4745525f5448414e5f4d4158494d554d00000000000000604082015260600190565b90815260200190565b60805160a05160c0516119f8620003c0600039806105e75280610d925250806109f05280610d525250806106a05280610a295280610c5f52506119f86000f3fe6080604052600436106101235760003560e01c8063b1fc8796116100a0578063d8298bfc11610064578063d8298bfc146102f4578063e177246e14610314578063f13f42a014610334578063f4a6b33614610354578063f670a5f9146103695761012a565b8063b1fc879614610275578063c1a287e214610295578063c243e24b146102aa578063cebc9a82146102ca578063d0468156146102df5761012a565b806373065de7116100e757806373065de7146101de5780637d645fab1461020b5780638902ab65146102205780638d8fe2e314610240578063b1b43ae5146102605761012a565b80630e18b6811461012f5780631dc40b51146101465780634dd18bf51461017c57806359e3a4171461019c5780636e9960c3146101bc5761012a565b3661012a57005b600080fd5b34801561013b57600080fd5b50610144610389565b005b34801561015257600080fd5b506101666101613660046111ee565b610413565b604051610173919061159f565b60405180910390f35b34801561018857600080fd5b5061014461019736600461119a565b6104df565b3480156101a857600080fd5b506101446101b7366004611288565b610554565b3480156101c857600080fd5b506101d16105b4565b6040516101739190611511565b3480156101ea57600080fd5b506101fe6101f936600461119a565b6105c3565b6040516101739190611594565b34801561021757600080fd5b506101666105e5565b61023361022e3660046111ee565b610609565b6040516101739190611638565b34801561024c57600080fd5b5061016661025b3660046111ee565b610905565b34801561026c57600080fd5b506101666109ee565b34801561028157600080fd5b506101fe610290366004611288565b610a12565b3480156102a157600080fd5b50610166610a27565b3480156102b657600080fd5b506101fe6102c5366004611288565b610a4b565b3480156102d657600080fd5b50610166610a60565b3480156102eb57600080fd5b506101d1610a66565b34801561030057600080fd5b5061014461030f3660046112a0565b610a75565b34801561032057600080fd5b5061014461032f366004611288565b610b2a565b34801561034057600080fd5b5061014461034f3660046111b6565b610b93565b34801561036057600080fd5b50610166610bc0565b34801561037557600080fd5b506101fe6103843660046112c4565b610bc6565b6001546001600160a01b031633146103bc5760405162461bcd60e51b81526004016103b39061164b565b60405180910390fd5b60008054336001600160a01b031991821681179092556001805490911690556040517f71614071b88dee5e0b2ae578a9dd7b2ebbe9ae832ba419dc0242cd065a290b6c9161040991611511565b60405180910390a1565b600080546001600160a01b0316331461043e5760405162461bcd60e51b81526004016103b3906117bf565b600087878787878760405160200161045b96959493929190611540565b60408051601f19818403018152828252805160209182012060008181526005909252919020805460ff1916905591506001600160a01b038916907f87c481aa909c37502caa37394ab791c26b68fa4fa5ae56de104de36444ae9069906104cc9084908b908b908b908b908b906115b8565b60405180910390a2979650505050505050565b3330146104fe5760405162461bcd60e51b81526004016103b3906118dc565b600180546001600160a01b0319166001600160a01b0383161790556040517f69d78e38a01985fbb1462961809b4b2d65531bc93b2b94037f3334b82ca4a75690610549908390611511565b60405180910390a150565b3330146105735760405162461bcd60e51b81526004016103b3906118dc565b61057f60035482610c8d565b60048190556040517f6279abfddebfe84be8ab6bb12d0ca77fc5ba4965aacccd32aee7de1e02610ab29061054990839061159f565b6000546001600160a01b031690565b6001600160a01b03811660009081526002602052604090205460ff165b919050565b7f000000000000000000000000000000000000000000000000000000000000000081565b6000546060906001600160a01b031633146106365760405162461bcd60e51b81526004016103b3906117bf565b600087878787878760405160200161065396959493929190611540565b60408051601f1981840301815291815281516020928301206000818152600590935291205490915060ff1661069a5760405162461bcd60e51b81526004016103b390611815565b6106c4847f0000000000000000000000000000000000000000000000000000000000000000610cad565b4211156106e35760405162461bcd60e51b81526004016103b3906117e6565b60008181526006602052604090205460ff161561072c57600454610708908590610d0e565b4210156107275760405162461bcd60e51b81526004016103b39061167a565b61074c565b8342101561074c5760405162461bcd60e51b81526004016103b3906116e1565b6000818152600560205260409020805460ff19169055855160609061077257508461079e565b86805190602001208660405160200161078c9291906114c4565b60405160208183030381529060405290505b60006060851561082b57893410156107c85760405162461bcd60e51b81526004016103b3906118ae565b8a6001600160a01b0316836040516107e091906114f5565b600060405180830381855af49150503d806000811461081b576040519150601f19603f3d011682016040523d82523d6000602084013e610820565b606091505b50909250905061088d565b8a6001600160a01b03168a8460405161084491906114f5565b60006040518083038185875af1925050503d8060008114610881576040519150601f19603f3d011682016040523d82523d6000602084013e610886565b606091505b5090925090505b816108aa5760405162461bcd60e51b81526004016103b390611840565b8a6001600160a01b03167f97825080b472fa91fe888b62ec128814d60dec546a2dafb955e50923f4a1b7e7858c8c8c8c8c886040516108ef97969594939291906115d7565b60405180910390a29a9950505050505050505050565b600080546001600160a01b031633146109305760405162461bcd60e51b81526004016103b3906117bf565b60035461093e904290610cad565b83101561095d5760405162461bcd60e51b81526004016103b390611710565b600087878787878760405160200161097a96959493929190611540565b60408051601f19818403018152828252805160209182012060008181526005909252919020805460ff1916600117905591506001600160a01b038916907f2191aed4c4733c76e08a9e7e1da0b8d87fa98753f22df49231ddc66e0f05f022906104cc9084908b908b908b908b908b906115b8565b7f000000000000000000000000000000000000000000000000000000000000000081565b60009081526005602052604090205460ff1690565b7f000000000000000000000000000000000000000000000000000000000000000081565b60009081526006602052604090205460ff1690565b60035490565b6001546001600160a01b031690565b3360009081526002602052604090205460ff16610aa45760405162461bcd60e51b81526004016103b3906116aa565b60008281526005602052604090205460ff16610ad25760405162461bcd60e51b81526004016103b390611815565b60008281526006602052604090819020805460ff1916831515179055517f912c2660be8f216839f75f6a6c4d4deb3c26dad6b38e6b89d0405c822a70614790610b1e90849084906115a8565b60405180910390a15050565b333014610b495760405162461bcd60e51b81526004016103b3906118dc565b610b5281610d50565b610b5e81600454610c8d565b60038190556040517f948b1f6a42ee138b7e34058ba85a37f716d55ff25ff05a763f15bed6a04c8d2c9061054990839061159f565b333014610bb25760405162461bcd60e51b81526004016103b3906118dc565b610bbc8282610dd3565b5050565b60045490565b6000610bd0610ec0565b604051633656de2160e01b81526001600160a01b03851690633656de2190610bfc90869060040161159f565b60006040518083038186803b158015610c1457600080fd5b505afa158015610c28573d6000803e3d6000fd5b505050506040513d6000823e601f3d908101601f19168201604052610c5091908101906112ef565b610140810151909150610c83907f0000000000000000000000000000000000000000000000000000000000000000610cad565b4211949350505050565b81811115610bbc5760405162461bcd60e51b81526004016103b390611747565b600082820183811015610d07576040805162461bcd60e51b815260206004820152601b60248201527f536166654d6174683a206164646974696f6e206f766572666c6f770000000000604482015290519081900360640190fd5b9392505050565b6000610d0783836040518060400160405280601e81526020017f536166654d6174683a207375627472616374696f6e206f766572666c6f770000815250610e29565b7f0000000000000000000000000000000000000000000000000000000000000000811015610d905760405162461bcd60e51b81526004016103b390611788565b7f0000000000000000000000000000000000000000000000000000000000000000811115610dd05760405162461bcd60e51b81526004016103b390611877565b50565b6001600160a01b03821660009081526002602052604090819020805460ff1916831515179055517fe469250b7f36ac6fab7be7fde12f0cc324137d0727d31b9da72c0605c66d20cc90610b1e9084908490611525565b60008184841115610eb85760405162461bcd60e51b81526004018080602001828103825283818151815260200191508051906020019080838360005b83811015610e7d578181015183820152602001610e65565b50505050905090810190601f168015610eaa5780820380516001836020036101000a031916815260200191505b509250505060405180910390fd5b505050900390565b6040518061022001604052806000815260200160006001600160a01b0316815260200160006001600160a01b031681526020016060815260200160608152602001606081526020016060815260200160608152602001600081526020016000815260200160008152602001600081526020016000815260200160001515815260200160001515815260200160006001600160a01b03168152602001600080191681525090565b80516105e08161199f565b600082601f830112610f81578081fd5b8151610f94610f8f8261192f565b61190b565b818152915060208083019084810181840286018201871015610fb557600080fd5b60005b84811015610fdd578151610fcb8161199f565b84529282019290820190600101610fb8565b505050505092915050565b600082601f830112610ff8578081fd5b8151611006610f8f8261192f565b81815291506020808301908481018184028601820187101561102757600080fd5b60005b84811015610fdd57815161103d816119b4565b8452928201929082019060010161102a565b600082601f83011261105f578081fd5b815161106d610f8f8261192f565b818152915060208083019084810160005b84811015610fdd578151870188603f82011261109957600080fd5b838101516110a9610f8f8261194d565b81815260408b818486010111156110bf57600080fd5b6110ce8388840183870161196f565b5086525050928201929082019060010161107e565b600082601f8301126110f3578081fd5b8151611101610f8f8261192f565b81815291506020808301908481018184028601820187101561112257600080fd5b60005b84811015610fdd57815184529282019290820190600101611125565b80516105e0816119b4565b600082601f83011261115c578081fd5b813561116a610f8f8261194d565b915080825283602082850101111561118157600080fd5b8060208401602084013760009082016020015292915050565b6000602082840312156111ab578081fd5b8135610d078161199f565b600080604083850312156111c8578081fd5b82356111d38161199f565b915060208301356111e3816119b4565b809150509250929050565b60008060008060008060c08789031215611206578182fd5b86356112118161199f565b955060208701359450604087013567ffffffffffffffff80821115611234578384fd5b6112408a838b0161114c565b95506060890135915080821115611255578384fd5b5061126289828a0161114c565b9350506080870135915060a087013561127a816119b4565b809150509295509295509295565b600060208284031215611299578081fd5b5035919050565b600080604083850312156112b2578182fd5b8235915060208301356111e3816119b4565b600080604083850312156112d6578182fd5b82356112e18161199f565b946020939093013593505050565b600060208284031215611300578081fd5b815167ffffffffffffffff80821115611317578283fd5b818401915061022080838703121561132d578384fd5b6113368161190b565b90508251815261134860208401610f66565b602082015261135960408401610f66565b604082015260608301518281111561136f578485fd5b61137b87828601610f71565b606083015250608083015182811115611392578485fd5b61139e878286016110e3565b60808301525060a0830151828111156113b5578485fd5b6113c18782860161104f565b60a08301525060c0830151828111156113d8578485fd5b6113e48782860161104f565b60c08301525060e0830151828111156113fb578485fd5b61140787828601610fe8565b60e083015250610100838101519082015261012080840151908201526101408084015190820152610160808401519082015261018080840151908201526101a09150611454828401611141565b828201526101c09150611468828401611141565b828201526101e0915061147c828401610f66565b9181019190915261020091820151918101919091529392505050565b600081518084526114b081602086016020860161196f565b601f01601f19169290920160200192915050565b6001600160e01b03198316815281516000906114e781600485016020870161196f565b919091016004019392505050565b6000825161150781846020870161196f565b9190910192915050565b6001600160a01b0391909116815260200190565b6001600160a01b039290921682521515602082015260400190565b600060018060a01b038816825286602083015260c0604083015261156760c0830187611498565b82810360608401526115798187611498565b6080840195909552505090151560a090910152949350505050565b901515815260200190565b90815260200190565b9182521515602082015260400190565b600087825286602083015260c0604083015261156760c0830187611498565b600088825287602083015260e060408301526115f660e0830188611498565b82810360608401526116088188611498565b905085608084015284151560a084015282810360c084015261162a8185611498565b9a9950505050505050505050565b600060208252610d076020830184611498565b60208082526015908201527427a7262cafa12cafa822a72224a723afa0a226a4a760591b604082015260600190565b6020808252601690820152754e4f545f494e5f5052494f524954595f57494e444f5760501b604082015260600190565b6020808252601b908201527f4f4e4c595f42595f5052494f524954595f434f4e54524f4c4c45520000000000604082015260600190565b602080825260159082015274151253515313d0d2d7d393d517d192539254d21151605a1b604082015260600190565b6020808252601d908201527f455845435554494f4e5f54494d455f554e444552455354494d41544544000000604082015260600190565b60208082526021908201527f5052494f524954595f504552494f445f4c4f4e4745525f5448414e5f44454c416040820152605960f81b606082015260800190565b6020808252601a908201527f44454c41595f53484f525445525f5448414e5f4d494e494d554d000000000000604082015260600190565b6020808252600d908201526c27a7262cafa12cafa0a226a4a760991b604082015260600190565b60208082526015908201527411d49050d157d411549253d117d192539254d21151605a1b604082015260600190565b6020808252601190820152701050d51253d397d393d517d45551555151607a1b604082015260600190565b60208082526017908201527f4641494c45445f414354494f4e5f455845435554494f4e000000000000000000604082015260600190565b60208082526019908201527f44454c41595f4c4f4e4745525f5448414e5f4d4158494d554d00000000000000604082015260600190565b6020808252601490820152734e4f545f454e4f5547485f4d53475f56414c554560601b604082015260600190565b6020808252601590820152744f4e4c595f42595f544849535f54494d454c4f434b60581b604082015260600190565b60405181810167ffffffffffffffff8111828210171561192757fe5b604052919050565b600067ffffffffffffffff82111561194357fe5b5060209081020190565b600067ffffffffffffffff82111561196157fe5b50601f01601f191660200190565b60005b8381101561198a578181015183820152602001611972565b83811115611999576000848401525b50505050565b6001600160a01b0381168114610dd057600080fd5b8015158114610dd057600080fdfea2646970667358221220c8fd15ec45c176d55ebe3608f61dd681c0a43a06db8a702919c4f67977b8c63464736f6c63430007050033",
  "linkReferences": {},
  "deployedLinkReferences": {}
}