{
  "_format": "hh-sol-artifact-1",
  "contractName": "LiquidityStakingV1",
  "sourceName": "contracts/liquidity/LiquidityStakingV1.sol",
  "abi": [
    {
      "inputs": [
        {
          "internalType": "contract IERC20",
          "name": "stakedToken",
          "type": "address"
        },
        {
          "internalType": "contract IERC20",
          "name": "rewardsToken",
          "type": "address"
        },
        {
          "internalType": "address",
          "name": "fxBridge",
          "type": "address"
        },
        {
          "internalType": "address",
          "name": "rewardsTreasury",
          "type": "address"
        },
        {
          "internalType": "uint256",
          "name": "distributionStart",
          "type": "uint256"
        },
        {
          "internalType": "uint256",
          "name": "distributionEnd",
          "type": "uint256"
        }
      ],
      "stateMutability": "nonpayable",
      "type": "constructor"
    },
    {
      "anonymous": false,
      "inputs": [
        {
          "indexed": true,
          "internalType": "address",
          "name": "owner",
          "type": "address"
        },
        {
          "indexed": true,
          "internalType": "address",
          "name": "spender",
          "type": "address"
        },
        {
          "indexed": false,
          "internalType": "uint256",
          "name": "value",
          "type": "uint256"
        }
      ],
      "name": "Approval",
      "type": "event"
    },
    {
      "anonymous": false,
      "inputs": [
        {
          "indexed": false,
          "internalType": "uint256",
          "name": "blackoutWindow",
          "type": "uint256"
        }
      ],
      "name": "BlackoutWindowChanged",
      "type": "event"
    },
    {
      "anonymous": false,
      "inputs": [
        {
          "indexed": true,
          "internalType": "address",
          "name": "borrower",
          "type": "address"
        },
        {
          "indexed": false,
          "internalType": "uint256",
          "name": "amount",
          "type": "uint256"
        },
        {
          "indexed": false,
          "internalType": "uint256",
          "name": "newBorrowedBalance",
          "type": "uint256"
        }
      ],
      "name": "Borrowed",
      "type": "event"
    },
    {
      "anonymous": false,
      "inputs": [
        {
          "indexed": true,
          "internalType": "address",
          "name": "borrower",
          "type": "address"
        },
        {
          "indexed": false,
          "internalType": "bool",
          "name": "isBorrowingRestricted",
          "type": "bool"
        }
      ],
      "name": "BorrowingRestrictionChanged",
      "type": "event"
    },
    {
      "anonymous": false,
      "inputs": [
        {
          "indexed": true,
          "internalType": "address",
          "name": "user",
          "type": "address"
        },
        {
          "indexed": false,
          "internalType": "address",
          "name": "recipient",
          "type": "address"
        },
        {
          "indexed": false,
          "internalType": "uint256",
          "name": "claimedRewards",
          "type": "uint256"
        }
      ],
      "name": "ClaimedRewards",
      "type": "event"
    },
    {
      "anonymous": false,
      "inputs": [
        {
          "indexed": false,
          "internalType": "uint256",
          "name": "shortfallAmount",
          "type": "uint256"
        },
        {
          "indexed": false,
          "internalType": "uint256",
          "name": "shortfallIndex",
          "type": "uint256"
        },
        {
          "indexed": false,
          "internalType": "uint256",
          "name": "newInactiveBalance",
          "type": "uint256"
        }
      ],
      "name": "ConvertedInactiveBalancesToDebt",
      "type": "event"
    },
    {
      "anonymous": false,
      "inputs": [
        {
          "indexed": true,
          "internalType": "address",
          "name": "borrower",
          "type": "address"
        },
        {
          "indexed": false,
          "internalType": "uint256",
          "name": "amount",
          "type": "uint256"
        },
        {
          "indexed": false,
          "internalType": "uint256",
          "name": "newBorrowedBalance",
          "type": "uint256"
        },
        {
          "indexed": false,
          "internalType": "uint256",
          "name": "newDebtBalance",
          "type": "uint256"
        }
      ],
      "name": "DebtMarked",
      "type": "event"
    },
    {
      "anonymous": false,
      "inputs": [
        {
          "components": [
            {
              "internalType": "uint128",
              "name": "interval",
              "type": "uint128"
            },
            {
              "internalType": "uint128",
              "name": "offset",
              "type": "uint128"
            }
          ],
          "indexed": false,
          "internalType": "struct LS1Types.EpochParameters",
          "name": "epochParameters",
          "type": "tuple"
        }
      ],
      "name": "EpochParametersChanged",
      "type": "event"
    },
    {
      "anonymous": false,
      "inputs": [
        {
          "indexed": false,
          "internalType": "uint256",
          "name": "index",
          "type": "uint256"
        }
      ],
      "name": "GlobalIndexUpdated",
      "type": "event"
    },
    {
      "anonymous": false,
      "inputs": [
        {
          "indexed": false,
          "internalType": "uint8",
          "name": "version",
          "type": "uint8"
        }
      ],
      "name": "Initialized",
      "type": "event"
    },
    {
      "anonymous": false,
      "inputs": [
        {
          "indexed": true,
          "internalType": "address",
          "name": "staker",
          "type": "address"
        },
        {
          "indexed": false,
          "internalType": "address",
          "name": "recipient",
          "type": "address"
        },
        {
          "indexed": false,
          "internalType": "uint256",
          "name": "claimedRewards",
          "type": "uint256"
        },
        {
          "indexed": false,
          "internalType": "address",
          "name": "operator",
          "type": "address"
        }
      ],
      "name": "OperatorClaimedRewardsFor",
      "type": "event"
    },
    {
      "anonymous": false,
      "inputs": [
        {
          "indexed": true,
          "internalType": "address",
          "name": "borrower",
          "type": "address"
        },
        {
          "indexed": false,
          "internalType": "uint256",
          "name": "amount",
          "type": "uint256"
        },
        {
          "indexed": false,
          "internalType": "uint256",
          "name": "newDebtBalance",
          "type": "uint256"
        },
        {
          "indexed": false,
          "internalType": "address",
          "name": "operator",
          "type": "address"
        }
      ],
      "name": "OperatorDecreasedBorrowerDebt",
      "type": "event"
    },
    {
      "anonymous": false,
      "inputs": [
        {
          "indexed": true,
          "internalType": "address",
          "name": "staker",
          "type": "address"
        },
        {
          "indexed": false,
          "internalType": "uint256",
          "name": "amount",
          "type": "uint256"
        },
        {
          "indexed": false,
          "internalType": "uint256",
          "name": "newDebtBalance",
          "type": "uint256"
        },
        {
          "indexed": false,
          "internalType": "address",
          "name": "operator",
          "type": "address"
        }
      ],
      "name": "OperatorDecreasedStakerDebt",
      "type": "event"
    },
    {
      "anonymous": false,
      "inputs": [
        {
          "indexed": true,
          "internalType": "address",
          "name": "staker",
          "type": "address"
        },
        {
          "indexed": false,
          "internalType": "uint256",
          "name": "amount",
          "type": "uint256"
        },
        {
          "indexed": false,
          "internalType": "address",
          "name": "operator",
          "type": "address"
        }
      ],
      "name": "OperatorStakedFor",
      "type": "event"
    },
    {
      "anonymous": false,
      "inputs": [
        {
          "indexed": true,
          "internalType": "address",
          "name": "staker",
          "type": "address"
        },
        {
          "indexed": false,
          "internalType": "uint256",
          "name": "amount",
          "type": "uint256"
        },
        {
          "indexed": false,
          "internalType": "address",
          "name": "operator",
          "type": "address"
        }
      ],
      "name": "OperatorWithdrawalRequestedFor",
      "type": "event"
    },
    {
      "anonymous": false,
      "inputs": [
        {
          "indexed": true,
          "internalType": "address",
          "name": "staker",
          "type": "address"
        },
        {
          "indexed": false,
          "internalType": "address",
          "name": "recipient",
          "type": "address"
        },
        {
          "indexed": false,
          "internalType": "uint256",
          "name": "amount",
          "type": "uint256"
        },
        {
          "indexed": false,
          "internalType": "address",
          "name": "operator",
          "type": "address"
        }
      ],
      "name": "OperatorWithdrewStakeFor",
      "type": "event"
    },
    {
      "anonymous": false,
      "inputs": [
        {
          "indexed": true,
          "internalType": "address",
          "name": "staker",
          "type": "address"
        },
        {
          "indexed": false,
          "internalType": "uint256",
          "name": "amount",
          "type": "uint256"
        },
        {
          "indexed": false,
          "internalType": "uint256",
          "name": "newDebtBalance",
          "type": "uint256"
        }
      ],
      "name": "ReceivedDebt",
      "type": "event"
    },
    {
      "anonymous": false,
      "inputs": [
        {
          "indexed": true,
          "internalType": "address",
          "name": "borrower",
          "type": "address"
        },
        {
          "indexed": false,
          "internalType": "address",
          "name": "sender",
          "type": "address"
        },
        {
          "indexed": false,
          "internalType": "uint256",
          "name": "amount",
          "type": "uint256"
        },
        {
          "indexed": false,
          "internalType": "uint256",
          "name": "newBorrowedBalance",
          "type": "uint256"
        }
      ],
      "name": "RepaidBorrow",
      "type": "event"
    },
    {
      "anonymous": false,
      "inputs": [
        {
          "indexed": true,
          "internalType": "address",
          "name": "borrower",
          "type": "address"
        },
        {
          "indexed": false,
          "internalType": "address",
          "name": "sender",
          "type": "address"
        },
        {
          "indexed": false,
          "internalType": "uint256",
          "name": "amount",
          "type": "uint256"
        },
        {
          "indexed": false,
          "internalType": "uint256",
          "name": "newDebtBalance",
          "type": "uint256"
        }
      ],
      "name": "RepaidDebt",
      "type": "event"
    },
    {
      "anonymous": false,
      "inputs": [
        {
          "indexed": false,
          "internalType": "uint256",
          "name": "emissionPerSecond",
          "type": "uint256"
        }
      ],
      "name": "RewardsPerSecondUpdated",
      "type": "event"
    },
    {
      "anonymous": false,
      "inputs": [
        {
          "indexed": true,
          "internalType": "bytes32",
          "name": "role",
          "type": "bytes32"
        },
        {
          "indexed": true,
          "internalType": "bytes32",
          "name": "previousAdminRole",
          "type": "bytes32"
        },
        {
          "indexed": true,
          "internalType": "bytes32",
          "name": "newAdminRole",
          "type": "bytes32"
        }
      ],
      "name": "RoleAdminChanged",
      "type": "event"
    },
    {
      "anonymous": false,
      "inputs": [
        {
          "indexed": true,
          "internalType": "bytes32",
          "name": "role",
          "type": "bytes32"
        },
        {
          "indexed": true,
          "internalType": "address",
          "name": "account",
          "type": "address"
        },
        {
          "indexed": true,
          "internalType": "address",
          "name": "sender",
          "type": "address"
        }
      ],
      "name": "RoleGranted",
      "type": "event"
    },
    {
      "anonymous": false,
      "inputs": [
        {
          "indexed": true,
          "internalType": "bytes32",
          "name": "role",
          "type": "bytes32"
        },
        {
          "indexed": true,
          "internalType": "address",
          "name": "account",
          "type": "address"
        },
        {
          "indexed": true,
          "internalType": "address",
          "name": "sender",
          "type": "address"
        }
      ],
      "name": "RoleRevoked",
      "type": "event"
    },
    {
      "anonymous": false,
      "inputs": [
        {
          "indexed": true,
          "internalType": "address",
          "name": "borrower",
          "type": "address"
        },
        {
          "indexed": false,
          "internalType": "uint256",
          "name": "oldAllocation",
          "type": "uint256"
        },
        {
          "indexed": false,
          "internalType": "uint256",
          "name": "newAllocation",
          "type": "uint256"
        },
        {
          "indexed": false,
          "internalType": "uint256",
          "name": "epochNumber",
          "type": "uint256"
        }
      ],
      "name": "ScheduledBorrowerAllocationChange",
      "type": "event"
    },
    {
      "anonymous": false,
      "inputs": [
        {
          "indexed": true,
          "internalType": "address",
          "name": "staker",
          "type": "address"
        },
        {
          "indexed": false,
          "internalType": "address",
          "name": "spender",
          "type": "address"
        },
        {
          "indexed": false,
          "internalType": "uint256",
          "name": "amount",
          "type": "uint256"
        }
      ],
      "name": "Staked",
      "type": "event"
    },
    {
      "anonymous": false,
      "inputs": [
        {
          "indexed": true,
          "internalType": "address",
          "name": "from",
          "type": "address"
        },
        {
          "indexed": true,
          "internalType": "address",
          "name": "to",
          "type": "address"
        },
        {
          "indexed": false,
          "internalType": "uint256",
          "name": "value",
          "type": "uint256"
        }
      ],
      "name": "Transfer",
      "type": "event"
    },
    {
      "anonymous": false,
      "inputs": [
        {
          "indexed": true,
          "internalType": "address",
          "name": "user",
          "type": "address"
        },
        {
          "indexed": false,
          "internalType": "uint256",
          "name": "index",
          "type": "uint256"
        },
        {
          "indexed": false,
          "internalType": "uint256",
          "name": "unclaimedRewards",
          "type": "uint256"
        }
      ],
      "name": "UserIndexUpdated",
      "type": "event"
    },
    {
      "anonymous": false,
      "inputs": [
        {
          "indexed": true,
          "internalType": "address",
          "name": "staker",
          "type": "address"
        },
        {
          "indexed": false,
          "internalType": "uint256",
          "name": "amount",
          "type": "uint256"
        }
      ],
      "name": "WithdrawalRequested",
      "type": "event"
    },
    {
      "anonymous": false,
      "inputs": [
        {
          "indexed": true,
          "internalType": "address",
          "name": "staker",
          "type": "address"
        },
        {
          "indexed": false,
          "internalType": "address",
          "name": "recipient",
          "type": "address"
        },
        {
          "indexed": false,
          "internalType": "uint256",
          "name": "amount",
          "type": "uint256"
        },
        {
          "indexed": false,
          "internalType": "uint256",
          "name": "newDebtBalance",
          "type": "uint256"
        }
      ],
      "name": "WithdrewDebt",
      "type": "event"
    },
    {
      "anonymous": false,
      "inputs": [
        {
          "indexed": true,
          "internalType": "address",
          "name": "staker",
          "type": "address"
        },
        {
          "indexed": false,
          "internalType": "address",
          "name": "recipient",
          "type": "address"
        },
        {
          "indexed": false,
          "internalType": "uint256",
          "name": "amount",
          "type": "uint256"
        }
      ],
      "name": "WithdrewStake",
      "type": "event"
    },
    {
      "inputs": [],
      "name": "BORROWER_ADMIN_ROLE",
      "outputs": [
        {
          "internalType": "bytes32",
          "name": "",
          "type": "bytes32"
        }
      ],
      "stateMutability": "view",
      "type": "function"
    },
    {
      "inputs": [],
      "name": "CLAIM_OPERATOR_ROLE",
      "outputs": [
        {
          "internalType": "bytes32",
          "name": "",
          "type": "bytes32"
        }
      ],
      "stateMutability": "view",
      "type": "function"
    },
    {
      "inputs": [],
      "name": "DEBT_OPERATOR_ROLE",
      "outputs": [
        {
          "internalType": "bytes32",
          "name": "",
          "type": "bytes32"
        }
      ],
      "stateMutability": "view",
      "type": "function"
    },
    {
      "inputs": [],
      "name": "DEFAULT_ADMIN_ROLE",
      "outputs": [
        {
          "internalType": "bytes32",
          "name": "",
          "type": "bytes32"
        }
      ],
      "stateMutability": "view",
      "type": "function"
    },
    {
      "inputs": [],
      "name": "DISTRIBUTION_END",
      "outputs": [
        {
          "internalType": "uint256",
          "name": "",
          "type": "uint256"
        }
      ],
      "stateMutability": "view",
      "type": "function"
    },
    {
      "inputs": [],
      "name": "DISTRIBUTION_START",
      "outputs": [
        {
          "internalType": "uint256",
          "name": "",
          "type": "uint256"
        }
      ],
      "stateMutability": "view",
      "type": "function"
    },
    {
      "inputs": [],
      "name": "EPOCH_PARAMETERS_ROLE",
      "outputs": [
        {
          "internalType": "bytes32",
          "name": "",
          "type": "bytes32"
        }
      ],
      "stateMutability": "view",
      "type": "function"
    },
    {
      "inputs": [],
      "name": "FX_BRIDGE",
      "outputs": [
        {
          "internalType": "address",
          "name": "",
          "type": "address"
        }
      ],
      "stateMutability": "view",
      "type": "function"
    },
    {
      "inputs": [],
      "name": "OWNER_ROLE",
      "outputs": [
        {
          "internalType": "bytes32",
          "name": "",
          "type": "bytes32"
        }
      ],
      "stateMutability": "view",
      "type": "function"
    },
    {
      "inputs": [],
      "name": "REWARDS_RATE_ROLE",
      "outputs": [
        {
          "internalType": "bytes32",
          "name": "",
          "type": "bytes32"
        }
      ],
      "stateMutability": "view",
      "type": "function"
    },
    {
      "inputs": [],
      "name": "REWARDS_TOKEN",
      "outputs": [
        {
          "internalType": "contract IERC20",
          "name": "",
          "type": "address"
        }
      ],
      "stateMutability": "view",
      "type": "function"
    },
    {
      "inputs": [],
      "name": "REWARDS_TREASURY",
      "outputs": [
        {
          "internalType": "address",
          "name": "",
          "type": "address"
        }
      ],
      "stateMutability": "view",
      "type": "function"
    },
    {
      "inputs": [],
      "name": "STAKED_TOKEN",
      "outputs": [
        {
          "internalType": "contract IERC20",
          "name": "",
          "type": "address"
        }
      ],
      "stateMutability": "view",
      "type": "function"
    },
    {
      "inputs": [],
      "name": "STAKE_OPERATOR_ROLE",
      "outputs": [
        {
          "internalType": "bytes32",
          "name": "",
          "type": "bytes32"
        }
      ],
      "stateMutability": "view",
      "type": "function"
    },
    {
      "inputs": [],
      "name": "TOTAL_ALLOCATION",
      "outputs": [
        {
          "internalType": "uint256",
          "name": "",
          "type": "uint256"
        }
      ],
      "stateMutability": "view",
      "type": "function"
    },
    {
      "inputs": [
        {
          "internalType": "address",
          "name": "owner",
          "type": "address"
        },
        {
          "internalType": "address",
          "name": "spender",
          "type": "address"
        }
      ],
      "name": "allowance",
      "outputs": [
        {
          "internalType": "uint256",
          "name": "",
          "type": "uint256"
        }
      ],
      "stateMutability": "view",
      "type": "function"
    },
    {
      "inputs": [
        {
          "internalType": "address",
          "name": "spender",
          "type": "address"
        },
        {
          "internalType": "uint256",
          "name": "amount",
          "type": "uint256"
        }
      ],
      "name": "approve",
      "outputs": [
        {
          "internalType": "bool",
          "name": "",
          "type": "bool"
        }
      ],
      "stateMutability": "nonpayable",
      "type": "function"
    },
    {
      "inputs": [
        {
          "internalType": "address",
          "name": "account",
          "type": "address"
        }
      ],
      "name": "balanceOf",
      "outputs": [
        {
          "internalType": "uint256",
          "name": "",
          "type": "uint256"
        }
      ],
      "stateMutability": "view",
      "type": "function"
    },
    {
      "inputs": [
        {
          "internalType": "uint256",
          "name": "amount",
          "type": "uint256"
        }
      ],
      "name": "borrow",
      "outputs": [],
      "stateMutability": "nonpayable",
      "type": "function"
    },
    {
      "inputs": [
        {
          "internalType": "address",
          "name": "recipient",
          "type": "address"
        }
      ],
      "name": "claimRewards",
      "outputs": [
        {
          "internalType": "uint256",
          "name": "",
          "type": "uint256"
        }
      ],
      "stateMutability": "nonpayable",
      "type": "function"
    },
    {
      "inputs": [
        {
          "internalType": "address",
          "name": "staker",
          "type": "address"
        },
        {
          "internalType": "address",
          "name": "recipient",
          "type": "address"
        }
      ],
      "name": "claimRewardsFor",
      "outputs": [
        {
          "internalType": "uint256",
          "name": "",
          "type": "uint256"
        }
      ],
      "stateMutability": "nonpayable",
      "type": "function"
    },
    {
      "inputs": [],
      "name": "decimals",
      "outputs": [
        {
          "internalType": "uint8",
          "name": "",
          "type": "uint8"
        }
      ],
      "stateMutability": "pure",
      "type": "function"
    },
    {
      "inputs": [
        {
          "internalType": "address",
          "name": "spender",
          "type": "address"
        },
        {
          "internalType": "uint256",
          "name": "subtractedValue",
          "type": "uint256"
        }
      ],
      "name": "decreaseAllowance",
      "outputs": [
        {
          "internalType": "bool",
          "name": "",
          "type": "bool"
        }
      ],
      "stateMutability": "nonpayable",
      "type": "function"
    },
    {
      "inputs": [
        {
          "internalType": "address",
          "name": "borrower",
          "type": "address"
        },
        {
          "internalType": "uint256",
          "name": "amount",
          "type": "uint256"
        }
      ],
      "name": "decreaseBorrowerDebt",
      "outputs": [
        {
          "internalType": "uint256",
          "name": "",
          "type": "uint256"
        }
      ],
      "stateMutability": "nonpayable",
      "type": "function"
    },
    {
      "inputs": [
        {
          "internalType": "address",
          "name": "staker",
          "type": "address"
        },
        {
          "internalType": "uint256",
          "name": "amount",
          "type": "uint256"
        }
      ],
      "name": "decreaseStakerDebt",
      "outputs": [
        {
          "internalType": "uint256",
          "name": "",
          "type": "uint256"
        }
      ],
      "stateMutability": "nonpayable",
      "type": "function"
    },
    {
      "inputs": [],
      "name": "failsafeDeleteUserInactiveBalance",
      "outputs": [],
      "stateMutability": "nonpayable",
      "type": "function"
    },
    {
      "inputs": [
        {
          "internalType": "uint256",
          "name": "maxEpoch",
          "type": "uint256"
        }
      ],
      "name": "failsafeSettleUserInactiveBalanceToEpoch",
      "outputs": [],
      "stateMutability": "nonpayable",
      "type": "function"
    },
    {
      "inputs": [
        {
          "internalType": "address",
          "name": "staker",
          "type": "address"
        }
      ],
      "name": "getActiveBalanceCurrentEpoch",
      "outputs": [
        {
          "internalType": "uint256",
          "name": "",
          "type": "uint256"
        }
      ],
      "stateMutability": "view",
      "type": "function"
    },
    {
      "inputs": [
        {
          "internalType": "address",
          "name": "staker",
          "type": "address"
        }
      ],
      "name": "getActiveBalanceNextEpoch",
      "outputs": [
        {
          "internalType": "uint256",
          "name": "",
          "type": "uint256"
        }
      ],
      "stateMutability": "view",
      "type": "function"
    },
    {
      "inputs": [
        {
          "internalType": "address",
          "name": "borrower",
          "type": "address"
        }
      ],
      "name": "getAllocatedBalanceCurrentEpoch",
      "outputs": [
        {
          "internalType": "uint256",
          "name": "",
          "type": "uint256"
        }
      ],
      "stateMutability": "view",
      "type": "function"
    },
    {
      "inputs": [
        {
          "internalType": "address",
          "name": "borrower",
          "type": "address"
        }
      ],
      "name": "getAllocatedBalanceNextEpoch",
      "outputs": [
        {
          "internalType": "uint256",
          "name": "",
          "type": "uint256"
        }
      ],
      "stateMutability": "view",
      "type": "function"
    },
    {
      "inputs": [
        {
          "internalType": "address",
          "name": "borrower",
          "type": "address"
        }
      ],
      "name": "getAllocationFractionCurrentEpoch",
      "outputs": [
        {
          "internalType": "uint256",
          "name": "",
          "type": "uint256"
        }
      ],
      "stateMutability": "view",
      "type": "function"
    },
    {
      "inputs": [
        {
          "internalType": "address",
          "name": "borrower",
          "type": "address"
        }
      ],
      "name": "getAllocationFractionNextEpoch",
      "outputs": [
        {
          "internalType": "uint256",
          "name": "",
          "type": "uint256"
        }
      ],
      "stateMutability": "view",
      "type": "function"
    },
    {
      "inputs": [],
      "name": "getBlackoutWindow",
      "outputs": [
        {
          "internalType": "uint256",
          "name": "",
          "type": "uint256"
        }
      ],
      "stateMutability": "view",
      "type": "function"
    },
    {
      "inputs": [
        {
          "internalType": "address",
          "name": "borrower",
          "type": "address"
        }
      ],
      "name": "getBorrowableAmount",
      "outputs": [
        {
          "internalType": "uint256",
          "name": "",
          "type": "uint256"
        }
      ],
      "stateMutability": "view",
      "type": "function"
    },
    {
      "inputs": [
        {
          "internalType": "address",
          "name": "borrower",
          "type": "address"
        }
      ],
      "name": "getBorrowedBalance",
      "outputs": [
        {
          "internalType": "uint256",
          "name": "",
          "type": "uint256"
        }
      ],
      "stateMutability": "view",
      "type": "function"
    },
    {
      "inputs": [
        {
          "internalType": "address",
          "name": "borrower",
          "type": "address"
        }
      ],
      "name": "getBorrowerDebtBalance",
      "outputs": [
        {
          "internalType": "uint256",
          "name": "",
          "type": "uint256"
        }
      ],
      "stateMutability": "view",
      "type": "function"
    },
    {
      "inputs": [],
      "name": "getContractBalanceAvailableToBorrow",
      "outputs": [
        {
          "internalType": "uint256",
          "name": "",
          "type": "uint256"
        }
      ],
      "stateMutability": "view",
      "type": "function"
    },
    {
      "inputs": [],
      "name": "getContractBalanceAvailableToWithdraw",
      "outputs": [
        {
          "internalType": "uint256",
          "name": "",
          "type": "uint256"
        }
      ],
      "stateMutability": "view",
      "type": "function"
    },
    {
      "inputs": [],
      "name": "getCurrentEpoch",
      "outputs": [
        {
          "internalType": "uint256",
          "name": "",
          "type": "uint256"
        }
      ],
      "stateMutability": "view",
      "type": "function"
    },
    {
      "inputs": [
        {
          "internalType": "address",
          "name": "staker",
          "type": "address"
        }
      ],
      "name": "getDebtAvailableToWithdraw",
      "outputs": [
        {
          "internalType": "uint256",
          "name": "",
          "type": "uint256"
        }
      ],
      "stateMutability": "view",
      "type": "function"
    },
    {
      "inputs": [],
      "name": "getEpochParameters",
      "outputs": [
        {
          "components": [
            {
              "internalType": "uint128",
              "name": "interval",
              "type": "uint128"
            },
            {
              "internalType": "uint128",
              "name": "offset",
              "type": "uint128"
            }
          ],
          "internalType": "struct LS1Types.EpochParameters",
          "name": "",
          "type": "tuple"
        }
      ],
      "stateMutability": "view",
      "type": "function"
    },
    {
      "inputs": [
        {
          "internalType": "address",
          "name": "staker",
          "type": "address"
        }
      ],
      "name": "getInactiveBalanceCurrentEpoch",
      "outputs": [
        {
          "internalType": "uint256",
          "name": "",
          "type": "uint256"
        }
      ],
      "stateMutability": "view",
      "type": "function"
    },
    {
      "inputs": [
        {
          "internalType": "address",
          "name": "staker",
          "type": "address"
        }
      ],
      "name": "getInactiveBalanceNextEpoch",
      "outputs": [
        {
          "internalType": "uint256",
          "name": "",
          "type": "uint256"
        }
      ],
      "stateMutability": "view",
      "type": "function"
    },
    {
      "inputs": [],
      "name": "getRewardsPerSecond",
      "outputs": [
        {
          "internalType": "uint256",
          "name": "",
          "type": "uint256"
        }
      ],
      "stateMutability": "view",
      "type": "function"
    },
    {
      "inputs": [
        {
          "internalType": "bytes32",
          "name": "role",
          "type": "bytes32"
        }
      ],
      "name": "getRoleAdmin",
      "outputs": [
        {
          "internalType": "bytes32",
          "name": "",
          "type": "bytes32"
        }
      ],
      "stateMutability": "view",
      "type": "function"
    },
    {
      "inputs": [
        {
          "internalType": "uint256",
          "name": "shortfallCounter",
          "type": "uint256"
        }
      ],
      "name": "getShortfall",
      "outputs": [
        {
          "components": [
            {
              "internalType": "uint16",
              "name": "epoch",
              "type": "uint16"
            },
            {
              "internalType": "uint224",
              "name": "index",
              "type": "uint224"
            }
          ],
          "internalType": "struct LS1Types.Shortfall",
          "name": "",
          "type": "tuple"
        }
      ],
      "stateMutability": "view",
      "type": "function"
    },
    {
      "inputs": [],
      "name": "getShortfallCount",
      "outputs": [
        {
          "internalType": "uint256",
          "name": "",
          "type": "uint256"
        }
      ],
      "stateMutability": "view",
      "type": "function"
    },
    {
      "inputs": [
        {
          "internalType": "address",
          "name": "staker",
          "type": "address"
        }
      ],
      "name": "getStakeAvailableToWithdraw",
      "outputs": [
        {
          "internalType": "uint256",
          "name": "",
          "type": "uint256"
        }
      ],
      "stateMutability": "view",
      "type": "function"
    },
    {
      "inputs": [
        {
          "internalType": "address",
          "name": "staker",
          "type": "address"
        }
      ],
      "name": "getStakerDebtBalance",
      "outputs": [
        {
          "internalType": "uint256",
          "name": "",
          "type": "uint256"
        }
      ],
      "stateMutability": "view",
      "type": "function"
    },
    {
      "inputs": [
        {
          "internalType": "uint256",
          "name": "epochNumber",
          "type": "uint256"
        }
      ],
      "name": "getStartOfEpoch",
      "outputs": [
        {
          "internalType": "uint256",
          "name": "",
          "type": "uint256"
        }
      ],
      "stateMutability": "view",
      "type": "function"
    },
    {
      "inputs": [],
      "name": "getTimeRemainingInCurrentEpoch",
      "outputs": [
        {
          "internalType": "uint256",
          "name": "",
          "type": "uint256"
        }
      ],
      "stateMutability": "view",
      "type": "function"
    },
    {
      "inputs": [],
      "name": "getTotalActiveBalanceCurrentEpoch",
      "outputs": [
        {
          "internalType": "uint256",
          "name": "",
          "type": "uint256"
        }
      ],
      "stateMutability": "view",
      "type": "function"
    },
    {
      "inputs": [],
      "name": "getTotalActiveBalanceNextEpoch",
      "outputs": [
        {
          "internalType": "uint256",
          "name": "",
          "type": "uint256"
        }
      ],
      "stateMutability": "view",
      "type": "function"
    },
    {
      "inputs": [],
      "name": "getTotalBorrowedBalance",
      "outputs": [
        {
          "internalType": "uint256",
          "name": "",
          "type": "uint256"
        }
      ],
      "stateMutability": "view",
      "type": "function"
    },
    {
      "inputs": [],
      "name": "getTotalBorrowerDebtBalance",
      "outputs": [
        {
          "internalType": "uint256",
          "name": "",
          "type": "uint256"
        }
      ],
      "stateMutability": "view",
      "type": "function"
    },
    {
      "inputs": [],
      "name": "getTotalDebtAvailableToWithdraw",
      "outputs": [
        {
          "internalType": "uint256",
          "name": "",
          "type": "uint256"
        }
      ],
      "stateMutability": "view",
      "type": "function"
    },
    {
      "inputs": [],
      "name": "getTotalInactiveBalanceCurrentEpoch",
      "outputs": [
        {
          "internalType": "uint256",
          "name": "",
          "type": "uint256"
        }
      ],
      "stateMutability": "view",
      "type": "function"
    },
    {
      "inputs": [],
      "name": "getTotalInactiveBalanceNextEpoch",
      "outputs": [
        {
          "internalType": "uint256",
          "name": "",
          "type": "uint256"
        }
      ],
      "stateMutability": "view",
      "type": "function"
    },
    {
      "inputs": [
        {
          "internalType": "address",
          "name": "account",
          "type": "address"
        }
      ],
      "name": "getTransferableBalance",
      "outputs": [
        {
          "internalType": "uint256",
          "name": "",
          "type": "uint256"
        }
      ],
      "stateMutability": "view",
      "type": "function"
    },
    {
      "inputs": [
        {
          "internalType": "bytes32",
          "name": "role",
          "type": "bytes32"
        },
        {
          "internalType": "address",
          "name": "account",
          "type": "address"
        }
      ],
      "name": "grantRole",
      "outputs": [],
      "stateMutability": "nonpayable",
      "type": "function"
    },
    {
      "inputs": [],
      "name": "hasEpochZeroStarted",
      "outputs": [
        {
          "internalType": "bool",
          "name": "",
          "type": "bool"
        }
      ],
      "stateMutability": "view",
      "type": "function"
    },
    {
      "inputs": [
        {
          "internalType": "bytes32",
          "name": "role",
          "type": "bytes32"
        },
        {
          "internalType": "address",
          "name": "account",
          "type": "address"
        }
      ],
      "name": "hasRole",
      "outputs": [
        {
          "internalType": "bool",
          "name": "",
          "type": "bool"
        }
      ],
      "stateMutability": "view",
      "type": "function"
    },
    {
      "inputs": [],
      "name": "inBlackoutWindow",
      "outputs": [
        {
          "internalType": "bool",
          "name": "",
          "type": "bool"
        }
      ],
      "stateMutability": "view",
      "type": "function"
    },
    {
      "inputs": [
        {
          "internalType": "address",
          "name": "spender",
          "type": "address"
        },
        {
          "internalType": "uint256",
          "name": "addedValue",
          "type": "uint256"
        }
      ],
      "name": "increaseAllowance",
      "outputs": [
        {
          "internalType": "bool",
          "name": "",
          "type": "bool"
        }
      ],
      "stateMutability": "nonpayable",
      "type": "function"
    },
    {
      "inputs": [
        {
          "internalType": "uint256",
          "name": "interval",
          "type": "uint256"
        },
        {
          "internalType": "uint256",
          "name": "offset",
          "type": "uint256"
        },
        {
          "internalType": "uint256",
          "name": "blackoutWindow",
          "type": "uint256"
        }
      ],
      "name": "initialize",
      "outputs": [],
      "stateMutability": "nonpayable",
      "type": "function"
    },
    {
      "inputs": [
        {
          "internalType": "address",
          "name": "borrower",
          "type": "address"
        }
      ],
      "name": "isBorrowerOverdue",
      "outputs": [
        {
          "internalType": "bool",
          "name": "",
          "type": "bool"
        }
      ],
      "stateMutability": "view",
      "type": "function"
    },
    {
      "inputs": [
        {
          "internalType": "address",
          "name": "borrower",
          "type": "address"
        }
      ],
      "name": "isBorrowingAllowedForBorrower",
      "outputs": [
        {
          "internalType": "bool",
          "name": "",
          "type": "bool"
        }
      ],
      "stateMutability": "view",
      "type": "function"
    },
    {
      "inputs": [
        {
          "internalType": "address",
          "name": "borrower",
          "type": "address"
        }
      ],
      "name": "isBorrowingRestrictedForBorrower",
      "outputs": [
        {
          "internalType": "bool",
          "name": "",
          "type": "bool"
        }
      ],
      "stateMutability": "view",
      "type": "function"
    },
    {
      "inputs": [
        {
          "internalType": "address[]",
          "name": "borrowers",
          "type": "address[]"
        }
      ],
      "name": "markDebt",
      "outputs": [
        {
          "internalType": "uint256",
          "name": "",
          "type": "uint256"
        }
      ],
      "stateMutability": "nonpayable",
      "type": "function"
    },
    {
      "inputs": [],
      "name": "name",
      "outputs": [
        {
          "internalType": "string",
          "name": "",
          "type": "string"
        }
      ],
      "stateMutability": "pure",
      "type": "function"
    },
    {
      "inputs": [
        {
          "internalType": "bytes32",
          "name": "role",
          "type": "bytes32"
        },
        {
          "internalType": "address",
          "name": "account",
          "type": "address"
        }
      ],
      "name": "renounceRole",
      "outputs": [],
      "stateMutability": "nonpayable",
      "type": "function"
    },
    {
      "inputs": [
        {
          "internalType": "address",
          "name": "borrower",
          "type": "address"
        },
        {
          "internalType": "uint256",
          "name": "amount",
          "type": "uint256"
        }
      ],
      "name": "repayBorrow",
      "outputs": [],
      "stateMutability": "nonpayable",
      "type": "function"
    },
    {
      "inputs": [
        {
          "internalType": "address",
          "name": "borrower",
          "type": "address"
        },
        {
          "internalType": "uint256",
          "name": "amount",
          "type": "uint256"
        }
      ],
      "name": "repayDebt",
      "outputs": [],
      "stateMutability": "nonpayable",
      "type": "function"
    },
    {
      "inputs": [
        {
          "internalType": "uint256",
          "name": "amount",
          "type": "uint256"
        }
      ],
      "name": "requestWithdrawal",
      "outputs": [],
      "stateMutability": "nonpayable",
      "type": "function"
    },
    {
      "inputs": [
        {
          "internalType": "address",
          "name": "staker",
          "type": "address"
        },
        {
          "internalType": "uint256",
          "name": "amount",
          "type": "uint256"
        }
      ],
      "name": "requestWithdrawalFor",
      "outputs": [],
      "stateMutability": "nonpayable",
      "type": "function"
    },
    {
      "inputs": [
        {
          "internalType": "address",
          "name": "borrower",
          "type": "address"
        }
      ],
      "name": "restrictBorrower",
      "outputs": [],
      "stateMutability": "nonpayable",
      "type": "function"
    },
    {
      "inputs": [
        {
          "internalType": "bytes32",
          "name": "role",
          "type": "bytes32"
        },
        {
          "internalType": "address",
          "name": "account",
          "type": "address"
        }
      ],
      "name": "revokeRole",
      "outputs": [],
      "stateMutability": "nonpayable",
      "type": "function"
    },
    {
      "inputs": [
        {
          "internalType": "uint256",
          "name": "blackoutWindow",
          "type": "uint256"
        }
      ],
      "name": "setBlackoutWindow",
      "outputs": [],
      "stateMutability": "nonpayable",
      "type": "function"
    },
    {
      "inputs": [
        {
          "internalType": "address[]",
          "name": "borrowers",
          "type": "address[]"
        },
        {
          "internalType": "uint256[]",
          "name": "newAllocations",
          "type": "uint256[]"
        }
      ],
      "name": "setBorrowerAllocations",
      "outputs": [],
      "stateMutability": "nonpayable",
      "type": "function"
    },
    {
      "inputs": [
        {
          "internalType": "address",
          "name": "borrower",
          "type": "address"
        },
        {
          "internalType": "bool",
          "name": "isBorrowingAllowed",
          "type": "bool"
        }
      ],
      "name": "setBorrowingPremission",
      "outputs": [],
      "stateMutability": "nonpayable",
      "type": "function"
    },
    {
      "inputs": [
        {
          "internalType": "address",
          "name": "borrower",
          "type": "address"
        },
        {
          "internalType": "bool",
          "name": "isBorrowingRestricted",
          "type": "bool"
        }
      ],
      "name": "setBorrowingRestriction",
      "outputs": [],
      "stateMutability": "nonpayable",
      "type": "function"
    },
    {
      "inputs": [
        {
          "internalType": "uint256",
          "name": "interval",
          "type": "uint256"
        },
        {
          "internalType": "uint256",
          "name": "offset",
          "type": "uint256"
        }
      ],
      "name": "setEpochParameters",
      "outputs": [],
      "stateMutability": "nonpayable",
      "type": "function"
    },
    {
      "inputs": [
        {
          "internalType": "uint256",
          "name": "emissionPerSecond",
          "type": "uint256"
        }
      ],
      "name": "setRewardsPerSecond",
      "outputs": [],
      "stateMutability": "nonpayable",
      "type": "function"
    },
    {
      "inputs": [
        {
          "internalType": "uint256",
          "name": "amount",
          "type": "uint256"
        }
      ],
      "name": "stake",
      "outputs": [],
      "stateMutability": "nonpayable",
      "type": "function"
    },
    {
      "inputs": [
        {
          "internalType": "address",
          "name": "staker",
          "type": "address"
        },
        {
          "internalType": "uint256",
          "name": "amount",
          "type": "uint256"
        }
      ],
      "name": "stakeFor",
      "outputs": [],
      "stateMutability": "nonpayable",
      "type": "function"
    },
    {
      "inputs": [
        {
          "internalType": "bytes4",
          "name": "interfaceId",
          "type": "bytes4"
        }
      ],
      "name": "supportsInterface",
      "outputs": [
        {
          "internalType": "bool",
          "name": "",
          "type": "bool"
        }
      ],
      "stateMutability": "view",
      "type": "function"
    },
    {
      "inputs": [],
      "name": "symbol",
      "outputs": [
        {
          "internalType": "string",
          "name": "",
          "type": "string"
        }
      ],
      "stateMutability": "pure",
      "type": "function"
    },
    {
      "inputs": [],
      "name": "totalSupply",
      "outputs": [
        {
          "internalType": "uint256",
          "name": "",
          "type": "uint256"
        }
      ],
      "stateMutability": "view",
      "type": "function"
    },
    {
      "inputs": [
        {
          "internalType": "address",
          "name": "recipient",
          "type": "address"
        },
        {
          "internalType": "uint256",
          "name": "amount",
          "type": "uint256"
        }
      ],
      "name": "transfer",
      "outputs": [
        {
          "internalType": "bool",
          "name": "",
          "type": "bool"
        }
      ],
      "stateMutability": "nonpayable",
      "type": "function"
    },
    {
      "inputs": [
        {
          "internalType": "address",
          "name": "sender",
          "type": "address"
        },
        {
          "internalType": "address",
          "name": "recipient",
          "type": "address"
        },
        {
          "internalType": "uint256",
          "name": "amount",
          "type": "uint256"
        }
      ],
      "name": "transferFrom",
      "outputs": [
        {
          "internalType": "bool",
          "name": "",
          "type": "bool"
        }
      ],
      "stateMutability": "nonpayable",
      "type": "function"
    },
    {
      "inputs": [
        {
          "internalType": "address",
          "name": "recipient",
          "type": "address"
        },
        {
          "internalType": "uint256",
          "name": "amount",
          "type": "uint256"
        }
      ],
      "name": "withdrawDebt",
      "outputs": [],
      "stateMutability": "nonpayable",
      "type": "function"
    },
    {
      "inputs": [
        {
          "internalType": "address",
          "name": "recipient",
          "type": "address"
        }
      ],
      "name": "withdrawMaxDebt",
      "outputs": [
        {
          "internalType": "uint256",
          "name": "",
          "type": "uint256"
        }
      ],
      "stateMutability": "nonpayable",
      "type": "function"
    },
    {
      "inputs": [
        {
          "internalType": "address",
          "name": "recipient",
          "type": "address"
        }
      ],
      "name": "withdrawMaxStake",
      "outputs": [
        {
          "internalType": "uint256",
          "name": "",
          "type": "uint256"
        }
      ],
      "stateMutability": "nonpayable",
      "type": "function"
    },
    {
      "inputs": [
        {
          "internalType": "address",
          "name": "recipient",
          "type": "address"
        },
        {
          "internalType": "uint256",
          "name": "amount",
          "type": "uint256"
        }
      ],
      "name": "withdrawStake",
      "outputs": [],
      "stateMutability": "nonpayable",
      "type": "function"
    },
    {
      "inputs": [
        {
          "internalType": "address",
          "name": "staker",
          "type": "address"
        },
        {
          "internalType": "address",
          "name": "recipient",
          "type": "address"
        },
        {
          "internalType": "uint256",
          "name": "amount",
          "type": "uint256"
        }
      ],
      "name": "withdrawStakeFor",
      "outputs": [],
      "stateMutability": "nonpayable",
      "type": "function"
    }
  ],
  "bytecode": "0x6101406040523480156200001257600080fd5b5060405162005efb38038062005efb833981016040819052620000359162000147565b60016097558585858585858585848484838383838383838381811015620000a25760405162461bcd60e51b815260206004820152601e60248201527f4c5331526577617264733a20496e76616c696420706172616d65746572730000604482015260640160405180910390fd5b836001600160a01b03166080816001600160a01b031660601b81525050826001600160a01b031660a0816001600160a01b031660601b815250508160c081815250508060e081815250505050505050505050846001600160a01b0316610100816001600160a01b031660601b815250505050505050836001600160a01b0316610120816001600160a01b031660601b81525050505050505050505050505050620001db565b60008060008060008060c0878903121562000160578182fd5b86516200016d81620001c2565b60208801519096506200018081620001c2565b60408801519095506200019381620001c2565b6060880151909450620001a681620001c2565b809350506080870151915060a087015190509295509295509295565b6001600160a01b0381168114620001d857600080fd5b50565b60805160601c60a05160601c60c05160e0516101005160601c6101205160601c615c776200028460003960006105f301526000818161077601528181611223015281816119cc01528181612062015281816123e1015281816130d50152818161354501526137a00152600081816109de015261532b0152600081816107ac0152613aab0152600081816106690152614c26015260008181610b500152614c040152615c776000f3fe608060405234801561001057600080fd5b50600436106105305760003560e01c806376f259b2116102af578063b97dd9e211610172578063d8a3f3be116100d9578063e58378bb11610092578063e58378bb14610d1f578063e84be57c14610d34578063e9d95d8014610d47578063ef5cfb8c14610d4f578063f120089a14610d62578063f5ec68fe14610d7557610530565b8063d8a3f3be14610c87578063db70184a14610c8f578063dd62ed3e14610ca2578063e0fc629c14610cdb578063e1c3202114610d04578063e294121e14610d1757610530565b8063c89b0fff1161012b578063c89b0fff14610bad578063c9351ef314610c00578063cbeb09aa14610c3b578063cfac722814610c4e578063d492b65614610c61578063d547741f14610c7457610530565b8063b97dd9e214610b30578063c4987fd214610b38578063c560107214610b4b578063c5b3966614610b72578063c5ebeaec14610b87578063c606627214610b9a57610530565b80639ee679e811610216578063a632f1db116101cf578063a632f1db14610abe578063a694fc3a14610ad1578063a9059cbb14610ae4578063abdb5ea814610af7578063adac80d414610b0a578063b8031a6a14610b1d57610530565b80639ee679e814610a3f578063a166334014610a52578063a1faea4c14610a65578063a217fddf14610a8e578063a2f44db014610a96578063a457c2d714610aab57610530565b80638e4c4d78116102685780638e4c4d781461099f5780638eebb0fd146109b2578063919cd40f146109d957806391d1485414610a0057806395d89b4114610a135780639d1888ef14610a3757610530565b806376f259b21461093657806379e20bdc1461093e5780637acb68081461095157806380d85911146109645780638420dd28146109775780638965f28b1461098a57610530565b80632f2ff15d116103f757806347aea1951161035e5780636461d4bf116103175780636461d4bf146108a95780636749f802146108bc578063691d1eb3146108e85780636f21c962146108fb57806370a082311461090e57806373f93fbd1461092157610530565b806347aea195146108355780634c0bcfe51461084a5780635da51e1f1461085d57806361f6731a14610870578063639347f414610883578063639b8d621461089657610530565b806335de00ab116103b057806335de00ab146107ce57806336568abe146107d65780633658aa25146107e957806339509351146107fc578063408aabc71461080f57806344501f981461082257610530565b80632f2ff15d1461074e5780633051f9401461076157806330d738de14610769578063312f6b8314610771578063313ce5671461079857806333c56e0b146107a757610530565b80631c89553c1161049b57806329b103d81161045457806329b103d8146106ef5780632a149932146106f75780632a7564ce146106ff5780632c73c1a1146107075780632c9ce4ff1461070f5780632ee409081461073b57610530565b80631c89553c146106645780631dd49f861461068b57806323b872dd1461069e578063248a9ca3146106b15780632495c2ab146106d45780632847f6ff146106e757610530565b8063095ea7b3116104ed578063095ea7b3146105db5780630b0e19f9146105ee5780630dac7bea1461062d578063125f8440146106365780631609caa31461064957806318160ddd1461065c57610530565b8063019758f11461053557806301ffc9a71461053f57806303f637f61461056757806306ae63ae1461057d57806306fdde031461059057806308a63266146105c8575b600080fd5b61053d610d7d565b005b61055261054d3660046158b5565b610dc0565b60405190151581526020015b60405180910390f35b61056f610df9565b60405190815260200161055e565b61053d61058b3660046158f5565b610e32565b60408051808201909152601381527213585c99da5b960814dd185ad959081554d115606a1b60208201525b60405161055e91906159d2565b61053d6105d636600461587b565b610fdd565b6105526105e936600461578d565b611019565b6106157f000000000000000000000000000000000000000000000000000000000000000081565b6040516001600160a01b03909116815260200161055e565b61056f61271081565b61056f61064436600461587b565b611030565b61056f6106573660046156d0565b61107d565b61056f61109b565b6106157f000000000000000000000000000000000000000000000000000000000000000081565b61053d610699366004615757565b6110bc565b6105526106ac36600461571c565b611106565b61056f6106bf36600461587b565b60009081526065602052604090206001015490565b61056f6106e23660046156d0565b611183565b61056f6111cf565b60995461056f565b61056f611201565b60a95461056f565b6105526112b4565b61055261071d3660046156d0565b6001600160a01b0316600090815260ab602052604090205460ff1690565b61053d61074936600461578d565b6112d7565b61053d61075c366004615893565b611309565b61056f611333565b60af5461056f565b6106157f000000000000000000000000000000000000000000000000000000000000000081565b6040516006815260200161055e565b61056f7f000000000000000000000000000000000000000000000000000000000000000081565b61056f61136b565b61053d6107e4366004615893565b6113a0565b61053d6107f736600461578d565b61141e565b61055261080a36600461578d565b6114b5565b61056f61081d3660046156d0565b6114eb565b61056f6108303660046156d0565b611517565b61056f600080516020615c0283398151915281565b61056f6108583660046156d0565b611563565b61056f61086b3660046156d0565b61156e565b61056f61087e36600461578d565b6115bb565b61056f6108913660046156d0565b611684565b61056f6108a43660046156d0565b6116e9565b61056f6108b73660046156d0565b611737565b6105526108ca3660046156d0565b6001600160a01b0316600090815260aa602052604090205460ff1690565b61056f6108f63660046156d0565b611785565b61056f6109093660046156d0565b611837565b61056f61091c3660046156d0565b611879565b61056f600080516020615b8283398151915281565b609b5461056f565b61053d61094c36600461578d565b611897565b61056f61095f36600461578d565b611a4c565b61053d610972366004615916565b611b3b565b61056f6109853660046156d0565b611c6a565b61056f600080516020615c2283398151915281565b61053d6109ad36600461571c565b611c9a565b61056f7f36dc7495d0ae0bc2a620bf292049e4d4e5f800043895b13c08a1977d3a3297f581565b61056f7f000000000000000000000000000000000000000000000000000000000000000081565b610552610a0e366004615893565b611d33565b6040805180820190915260088152671cdd1ad61554d11560c21b60208201526105bb565b61056f611d5e565b61053d610a4d36600461587b565b611d93565b61056f610a603660046156ea565b611dc5565b61056f610a733660046156d0565b6001600160a01b0316600090815260ad602052604090205490565b61056f600081565b61056f600080516020615ba283398151915281565b610552610ab936600461578d565b611e75565b61056f610acc3660046156d0565b611eab565b61053d610adf36600461587b565b611ec9565b610552610af236600461578d565b611efb565b61053d610b0536600461578d565b611f3d565b61056f610b183660046156d0565b6120d3565b610552610b2b3660046156d0565b6120ef565b61056f61211d565b61053d610b4636600461587b565b612139565b6106157f000000000000000000000000000000000000000000000000000000000000000081565b61056f600080516020615be283398151915281565b61053d610b9536600461587b565b6121fc565b61053d610ba836600461578d565b612449565b6040805180820182526000808252602091820152815180830183526098546001600160801b03808216808452600160801b909204811692840192835284519182529151909116918101919091520161055e565b610c13610c0e36600461587b565b61247c565b60408051825161ffff1681526020928301516001600160e01b0316928101929092520161055e565b61053d610c4936600461587b565b6124ec565b61056f610c5c3660046156d0565b612550565b61053d610c6f36600461578d565b612568565b61053d610c82366004615893565b61259b565b61056f6125c0565b61056f610c9d3660046157b6565b6125f5565b61056f610cb03660046156ea565b6001600160a01b039182166000908152609a6020908152604080832093909416825291909152205490565b61056f610ce93660046156d0565b6001600160a01b0316600090815260a8602052604090205490565b61053d610d123660046157f6565b6126af565b61055261277b565b61056f600080516020615bc283398151915281565b61053d610d42366004615757565b6127ac565b60ae5461056f565b61056f610d5d3660046156d0565b6127f6565b61053d610d703660046156d0565b61282a565b60a65461056f565b60026097541415610da95760405162461bcd60e51b8152600401610da090615a3c565b60405180910390fd5b600260975533610db8816128c2565b506001609755565b60006001600160e01b03198216637965db0b60e01b1480610df157506301ffc9a760e01b6001600160e01b03198316145b90505b919050565b6000610e0361277b565b610e0f57506000610e2f565b6000610e1b60a1612900565b505050604001516001600160801b03169150505b90565b600080516020615b82833981519152610e4a816129e4565b60026097541415610e6d5760405162461bcd60e51b8152600401610da090615a3c565b6002609755610e7a61277b565b610edc57814210610ecd5760405162461bcd60e51b815260206004820152601c60248201527f4c533141646d696e3a20537461727465642065706f6368207a65726f000000006044820152606401610da0565b610ed783836129f1565b610fd3565b610ee46112b4565b15610f015760405162461bcd60e51b8152600401610da090615a05565b610f09612aaa565b506000610f1461211d565b9050610f2084846129f1565b6000610f2a61211d565b9050808214610f7b5760405162461bcd60e51b815260206004820152601860248201527f4c533141646d696e3a204368616e6765642065706f63687300000000000000006044820152606401610da0565b610f836112b4565b15610fd05760405162461bcd60e51b815260206004820181905260248201527f4c533141646d696e3a20456e6420696e20626c61636b6f75742077696e646f776044820152606401610da0565b50505b5050600160975550565b600260975414156110005760405162461bcd60e51b8152600401610da090615a3c565b6002609755336110108183612ab8565b50506001609755565b6000611026338484612ae0565b5060015b92915050565b604080518082019091526098546001600160801b03808216808452600160801b909204166020830181905260009291906110748161106e8785612bf8565b90612c04565b95945050505050565b600061108882612c10565b602001516001600160801b031692915050565b60006110a56125c0565b6110ad611333565b6110b79190615a73565b905090565b600080516020615c228339815191526110d4816129e4565b600260975414156110f75760405162461bcd60e51b8152600401610da090615a3c565b6002609755610fd38383612cc8565b60006002609754141561112b5760405162461bcd60e51b8152600401610da090615a3c565b600260975561113b848484612d50565b6001600160a01b0384166000908152609a60209081526040808320338085529252909120546111759186916111709086612ecc565b612ae0565b506001806097559392505050565b600061118d61277b565b61119957506000610df4565b6001600160a01b038216600090815260a3602052604081206111ba90612ed8565b50602001516001600160801b03169392505050565b60008060006111dc613002565b909250905060006111ed82846130b2565b90506111f98382612ecc565b935050505090565b6040516370a0823160e01b815230600482015260009081906001600160a01b037f000000000000000000000000000000000000000000000000000000000000000016906370a082319060240160206040518083038186803b15801561126557600080fd5b505afa158015611279573d6000803e3d6000fd5b505050506040513d601f19601f8201168201806040525081019061129d91906158dd565b60af549091506112ad8282612ecc565b9250505090565b60006112be61277b565b80156110b757506099546112d06111cf565b1115905090565b600260975414156112fa5760405162461bcd60e51b8152600401610da090615a3c565b600260975561101082826130be565b600082815260656020526040902060010154611324816129e4565b61132e838361317d565b505050565b600061133d61277b565b61134957506000610e2f565b600061135560a1612900565b505050602001516001600160801b031691505090565b600061137561277b565b61138157506000610e2f565b600061138d60a4613203565b604001516001600160801b031691505090565b6001600160a01b03811633146114105760405162461bcd60e51b815260206004820152602f60248201527f416363657373436f6e74726f6c3a2063616e206f6e6c792072656e6f756e636560448201526e103937b632b9903337b91039b2b63360891b6064820152608401610da0565b61141a8282613279565b5050565b600080516020615ba2833981519152611436816129e4565b600260975414156114595760405162461bcd60e51b8152600401610da090615a3c565b600260975561146883836132e0565b604080518381523360208201526001600160a01b038516917fe96762895ada5c92db22bdc031ae7e0a7122e4f496496dbb44565710e7bd220c910160405180910390a25050600160975550565b336000818152609a602090815260408083206001600160a01b038716845290915281205490916110269185906111709086612c04565b6000806114f783611183565b90506000611503611201565b905061150f8282613423565b949350505050565b600061152161277b565b61152d57506000610df4565b6001600160a01b038216600090815260a36020526040812061154e90612ed8565b50604001516001600160801b03169392505050565b6000610df182611737565b6000600260975414156115935760405162461bcd60e51b8152600401610da090615a3c565b600260975560006115a3336114eb565b90506115b0338483613439565b600160975592915050565b6000600080516020615c028339815191526115d5816129e4565b600260975414156115f85760405162461bcd60e51b8152600401610da090615a3c565b60026097556000611608856135f1565b905060006116168286612ecc565b6001600160a01b038716600081815260ac602090815260409182902084905581518981529081018490523381830152905192935090917fce5d55b95f5e7bf00ae6598fc6a456cffe79d5b6e4880f6b16fcb0136a45a0139181900360600190a2600160975595945050505050565b600061168e61277b565b61169a57506000610df4565b6001600160a01b038216600090815260a3602052604081206116bb90612ed8565b6001600160a01b038516600090815260ac60205260409020549092506116e2915082612c04565b9392505050565b60006116f361277b565b6116ff57506000610df4565b6001600160a01b038216600090815260a06020526040812061172090612900565b505050602001516001600160801b03169392505050565b600061174161277b565b61174d57506000610df4565b6001600160a01b038216600090815260a06020526040812061176e90612900565b505050604001516001600160801b03169392505050565b6001600160a01b038116600090815260aa602052604081205460ff16806117c557506001600160a01b038216600090815260ab602052604090205460ff16155b156117d257506000610df4565b6001600160a01b038216600090815260a86020526040812054906117f58461361b565b905081811161180957600092505050610df4565b60006118158284612ecc565b90506000611821611d5e565b905061182d8282613423565b9695505050505050565b60006002609754141561185c5760405162461bcd60e51b8152600401610da090615a3c565b6002609755600061186c336120d3565b90506115b033848361367d565b600061188482611183565b61188d836116e9565b610df19190615a73565b600260975414156118ba5760405162461bcd60e51b8152600401610da090615a3c565b60026097558061190c5760405162461bcd60e51b815260206004820152601f60248201527f4c5331426f72726f77696e673a2043616e6e6f74207265706179207a65726f006044820152606401610da0565b6001600160a01b038216600090815260ad6020526040902054808211156119755760405162461bcd60e51b815260206004820152601a60248201527f4c5331426f72726f77696e673a205265706179203e20646562740000000000006044820152606401610da0565b60006119818284612ecc565b6001600160a01b038516600090815260ad6020526040902081905560ae549091506119ac9084612ecc565b60ae5560af546119bc9084612c04565b60af556119f46001600160a01b037f00000000000000000000000000000000000000000000000000000000000000001633308661381f565b60408051338152602081018590529081018290526001600160a01b038516907f812ecf7f09a6d9b6fe55bc9c72038c8fecfa1161b291ef686b29601500714274906060015b60405180910390a2505060016097555050565b6000600080516020615c02833981519152611a66816129e4565b60026097541415611a895760405162461bcd60e51b8152600401610da090615a3c565b60026097556001600160a01b038416600090815260ad6020526040812054611ab19085612ecc565b6001600160a01b038616600090815260ad6020526040902081905560ae54909150611adc9085612ecc565b60ae55604080518581526020810183905233918101919091526001600160a01b038616907f9233e170f570616869e6d397de65d5c2f218ec9bddae5d260b8809350b082826906060015b60405180910390a26001609755949350505050565b600054610100900460ff1615808015611b5b5750600054600160ff909116105b80611b755750303b158015611b75575060005460ff166001145b611bd85760405162461bcd60e51b815260206004820152602e60248201527f496e697469616c697a61626c653a20636f6e747261637420697320616c72656160448201526d191e481a5b9a5d1a585b1a5e995960921b6064820152608401610da0565b6000805460ff191660011790558015611bfb576000805461ff0019166101001790555b611c0361388a565b611c0e8484846139fa565b611c16613aa2565b611c1e613af6565b8015611c64576000805461ff0019169055604051600181527f7f26b83ff96e1f2b6a682f133852f6798a09c465da95921460cefb38474024989060200160405180910390a15b50505050565b600080611c768361107d565b90506000611c82611333565b905061150f612710611c948385612bf8565b90613bdc565b600080516020615ba2833981519152611cb2816129e4565b60026097541415611cd55760405162461bcd60e51b8152600401610da090615a3c565b6002609755611ce5848484613439565b604080516001600160a01b038581168252602082018590523392820192909252908516907f8aabc7295316290cecf4a116d1d8c6d2387df98ff3caa40149f4398d146278d390606001611a39565b60009182526065602090815260408084206001600160a01b0393909316845291905290205460ff1690565b600080611d69611201565b90506000611d756125c0565b9050808211611d8957600092505050610e2f565b6112ad8282612ecc565b60026097541415611db65760405162461bcd60e51b8152600401610da090615a3c565b6002609755610db833826132e0565b60007f36dc7495d0ae0bc2a620bf292049e4d4e5f800043895b13c08a1977d3a3297f5611df1816129e4565b60026097541415611e145760405162461bcd60e51b8152600401610da090615a3c565b60026097556000611e258585613be8565b604080516001600160a01b0387811682526020820184905233928201929092529192508616907f8b787e8c8443ad32d7a6d2aed319d9bee901168951fe414912a3968f977c6a2990606001611b26565b336000818152609a602090815260408083206001600160a01b038716845290915281205490916110269185906111709086612ecc565b6000611eb682612c10565b604001516001600160801b031692915050565b60026097541415611eec5760405162461bcd60e51b8152600401610da090615a3c565b6002609755610db833826130be565b600060026097541415611f205760405162461bcd60e51b8152600401610da090615a3c565b6002609755611f30338484612d50565b5060018060975592915050565b60026097541415611f605760405162461bcd60e51b8152600401610da090615a3c565b600260975580611fb25760405162461bcd60e51b815260206004820152601f60248201527f4c5331426f72726f77696e673a2043616e6e6f74207265706179207a65726f006044820152606401610da0565b6001600160a01b038216600090815260a860205260409020548082111561201b5760405162461bcd60e51b815260206004820152601e60248201527f4c5331426f72726f77696e673a205265706179203e20626f72726f77656400006044820152606401610da0565b60006120278284612ecc565b6001600160a01b038516600090815260a86020526040902081905560a9549091506120529084612ecc565b60a95561208a6001600160a01b037f00000000000000000000000000000000000000000000000000000000000000001633308661381f565b60408051338152602081018590529081018290526001600160a01b038516907ff2dd4e214006135a985d0652148818c010ea064eb762e3e5b15b03f388ec079790606001611a39565b6000806120df83611684565b60af5490915061150f8282613423565b6000806120fb83611c6a565b6001600160a01b038416600090815260a8602052604090205411915050919050565b600080600061212a613002565b90925090506112ad8183613bdc565b600080516020615b82833981519152612151816129e4565b600260975414156121745760405162461bcd60e51b8152600401610da090615a3c565b60026097556121816112b4565b1561219e5760405162461bcd60e51b8152600401610da090615a05565b6121a782613c1a565b6121af6112b4565b156110105760405162461bcd60e51b815260206004820181905260248201527f4c533141646d696e3a20456e6420696e20626c61636b6f75742077696e646f776044820152606401610da0565b6002609754141561221f5760405162461bcd60e51b8152600401610da090615a3c565b6002609755806122715760405162461bcd60e51b815260206004820181905260248201527f4c5331426f72726f77696e673a2043616e6e6f7420626f72726f77207a65726f6044820152606401610da0565b33600081815260ab602052604090205460ff166122d05760405162461bcd60e51b815260206004820152601860248201527f4c5331426f72726f77696e673a205265737472696374656400000000000000006044820152606401610da0565b60006122da611d5e565b90508083111561232c5760405162461bcd60e51b815260206004820181905260248201527f4c5331426f72726f77696e673a20416d6f756e74203e20617661696c61626c656044820152606401610da0565b6001600160a01b038216600090815260a8602052604081205461234f9085612c04565b905061235a8361361b565b8111156123a95760405162461bcd60e51b815260206004820181905260248201527f4c5331426f72726f77696e673a20416d6f756e74203e20616c6c6f63617465646044820152606401610da0565b6001600160a01b038316600090815260a86020526040902081905560a9546123d19085612c04565b60a9556124086001600160a01b037f0000000000000000000000000000000000000000000000000000000000000000168486613c6b565b60408051858152602081018390526001600160a01b038516917feae9cfbc77fdd40ca899f36b608256063b2bc9d8178b0220f7ad513e178d67309101611a39565b6002609754141561246c5760405162461bcd60e51b8152600401610da090615a3c565b6002609755611010338383613439565b604080518082019091526000808252602082015260a682815481106124b157634e487b7160e01b600052603260045260246000fd5b60009182526020918290206040805180820190915291015461ffff811682526201000090046001600160e01b03169181019190915292915050565b600080516020615be2833981519152612504816129e4565b600260975414156125275760405162461bcd60e51b8152600401610da090615a3c565b6002609755600061253661277b565b1561254657612543612aaa565b90505b610fd38382613c9b565b60008061255c83611eab565b90506000611c82610df9565b6002609754141561258b5760405162461bcd60e51b8152600401610da090615a3c565b600260975561101033838361367d565b6000828152606560205260409020600101546125b6816129e4565b61132e8383613279565b60006125ca61277b565b6125d657506000610e2f565b60006125e260a4613203565b602001516001600160801b031691505090565b60006002609754141561261a5760405162461bcd60e51b8152600401610da090615a3c565b60026097556000612629611333565b60a95490915081811161267e5760405162461bcd60e51b815260206004820152601f60248201527f4c5331446562744163636f756e74696e673a204e6f2073686f727466616c6c006044820152606401610da0565b600061268a8284612ecc565b905061269881848888613ce1565b6126a181613f41565b600160975595945050505050565b600080516020615c228339815191526126c7816129e4565b600260975414156126ea5760405162461bcd60e51b8152600401610da090615a3c565b600260975583821461273e5760405162461bcd60e51b815260206004820181905260248201527f4c533141646d696e3a20506172616d73206c656e677468206d69736d617463686044820152606401610da0565b6127466112b4565b156127635760405162461bcd60e51b8152600401610da090615a05565b61276f85858585613fe4565b50506001609755505050565b604080518082019091526098546001600160801b038082168352600160801b90910416602090910181905242101590565b600080516020615c228339815191526127c4816129e4565b600260975414156127e75760405162461bcd60e51b8152600401610da090615a3c565b6002609755610fd38383614201565b60006002609754141561281b5760405162461bcd60e51b8152600401610da090615a3c565b60026097556115b03383613be8565b6002609754141561284d5760405162461bcd60e51b8152600401610da090615a3c565b600260975561285b816120ef565b6128b75760405162461bcd60e51b815260206004820152602760248201527f4c5331446562744163636f756e74696e673a20426f72726f776572206e6f74206044820152666f76657264756560c81b6064820152608401610da0565b610db8816001614201565b60006128cf826000614280565b60408051608081018252600080825260208201819052918101829052606081019190915290915061132e82826142f3565b60408051608081018252600080825260208201819052918101829052606081019190915260408051608081018252835461ffff8082168084526001600160801b0362010000909304831660208501819052600188015493841695850195909552600160801b909204166060830152600092839283929091838061298161211d565b855190915061ffff168111156129d45784604001516001600160801b031685602001516001600160801b0316141591506129ba81614369565b61ffff16855260408501516001600160801b031660208601525b5092989197509550909350915050565b6129ee81336143d0565b50565b6129fd82609954614429565b60006040518060400160405280612a1385614581565b6001600160801b03168152602001612a2a84614581565b6001600160801b03908116909152815160988054602080860180518616600160801b029486166001600160801b03199093168317861694909417909255604080519182529251909316908301529192507f04821abf6e0e737d3429c8610f8577fd7af8a285e19ac1671673b313e708a716910160405180910390a1505050565b60006110b7600060016145e6565b6000612ac5836000614280565b90506000612ad482858561461d565b9050611c6482826142f3565b6001600160a01b038316612b405760405162461bcd60e51b815260206004820152602160248201527f4c533145524332303a20417070726f76652066726f6d206164647265737328306044820152602960f81b6064820152608401610da0565b6001600160a01b038216612b965760405162461bcd60e51b815260206004820152601f60248201527f4c533145524332303a20417070726f766520746f2061646472657373283029006044820152606401610da0565b6001600160a01b038381166000818152609a602090815260408083209487168084529482529182902085905590518481527f8c5be1e5ebec7d5bd14f71427d1e84f3dd0314c0f7b2291e5b200ac8c7c3b92591015b60405180910390a3505050565b60006116e28284615a9f565b60006116e28284615a73565b6040805160608082018352600080835260208084018290528385018290526001600160a01b038616825260a781529084902084519283018552805461ffff811684526201000090046001600160801b039081169284019290925260010154169281019290925290612c7f61277b565b15610df1576000612c8e61211d565b825190915061ffff16811115612cc157612ca781614369565b61ffff16825260408201516001600160801b031660208301525b5092915050565b6001600160a01b038216600090815260ab602052604090205460ff168015158215151461132e576001600160a01b038316600081815260ab6020908152604091829020805460ff191686151590811790915591519182527f16a89156280b4b0c2ec1a3fc5a0796b9fb93282b073129dc05c4734d0371893391015b60405180910390a2505050565b6001600160a01b038316612db15760405162461bcd60e51b815260206004820152602260248201527f4c533145524332303a205472616e736665722066726f6d206164647265737328604482015261302960f01b6064820152608401610da0565b6001600160a01b038216612e075760405162461bcd60e51b815260206004820181905260248201527f4c533145524332303a205472616e7366657220746f20616464726573732830296044820152606401610da0565b80612e1184611563565b1015612e7c5760405162461bcd60e51b815260206004820152603460248201527f4c533145524332303a205472616e736665722065786365656473206e6578742060448201527365706f6368206163746976652062616c616e636560601b6064820152608401610da0565b612e878383836147e1565b816001600160a01b0316836001600160a01b03167fddf252ad1be2c89b69c2b068fc378daa952ba7f163c4a11628f55a4df523b3ef83604051612beb91815260200190565b60006116e28284615abe565b60408051608081018252600080825260208201819052918101829052606081019190915260408051608081018252835461ffff80821683526001600160801b036201000090920482166020840152600186015491821693830193909352600160801b9004909116606082015260009081612f5061211d565b905081604001516001600160801b031660001415612f9857612f7181614369565b61ffff16825260a654612f8390614369565b61ffff16606083015250915060009050612ffd565b6000612fa38361482d565b8151919450915061ffff16821115612ff557612fbe82614369565b61ffff16835260408301516001600160801b031660208401526000612fe28461482d565b9094509050612ff18282612c04565b9150505b919350909150505b915091565b604080518082019091526098546001600160801b03808216808452600160801b909204166020830181905260009283929091428111156130995760405162461bcd60e51b815260206004820152602c60248201527f4c533145706f63685363686564756c653a2045706f6368207a65726f2068617360448201526b081b9bdd081cdd185c9d195960a21b6064820152608401610da0565b60006130a54283612ecc565b9295509193505050509091565b60006116e28284615b33565b6130c882826149ab565b6130fd6001600160a01b037f00000000000000000000000000000000000000000000000000000000000000001633308461381f565b60408051338152602081018390526001600160a01b038416917f5dac0c1b1112564a045ba943c9d50270893e8e826c49be8e7073adc713ab7bd7910160405180910390a260405181815233906000907fddf252ad1be2c89b69c2b068fc378daa952ba7f163c4a11628f55a4df523b3ef9060200160405180910390a35050565b6131878282611d33565b61141a5760008281526065602090815260408083206001600160a01b03851684529091529020805460ff191660011790556131bf3390565b6001600160a01b0316816001600160a01b0316837f2f8788117e7eff1d82e926ec794901d17c78024a50270940304540a733656f0d60405160405180910390a45050565b60408051608081018252600080825260208201819052918101829052606081019190915260408051608081018252835461ffff80821683526001600160801b036201000090920482166020840152600186015491821693830193909352600160801b900490911660608201526000612c8e61211d565b6132838282611d33565b1561141a5760008281526065602090815260408083206001600160a01b0385168085529252808320805460ff1916905551339285917ff6391f5c32d9c69d2a47ea670b442974b53935d1edc7fd64eb21e047a839171b9190a45050565b6132e86112b4565b1561335b5760405162461bcd60e51b815260206004820152603f60248201527f4c53315374616b696e673a20576974686472617720726571756573747320726560448201527f737472696374656420696e2074686520626c61636b6f75742077696e646f77006064820152608401610da0565b600061336683611737565b9050808211156133de5760405162461bcd60e51b815260206004820152603860248201527f4c53315374616b696e673a20576974686472617720726571756573742065786360448201527f65656473206e657874206163746976652062616c616e636500000000000000006064820152608401610da0565b6133e883836149de565b826001600160a01b03167fe670e4e82118d22a1f9ee18920455ebc958bae26a90a05d31d3378788b1b0e4483604051612d4391815260200190565b600081831061343257816116e2565b5090919050565b6000613443611201565b9050808211156134bb5760405162461bcd60e51b815260206004820152603d60248201527f4c53315374616b696e673a205769746864726177206578636565647320616d6f60448201527f756e7420617661696c61626c6520696e2074686520636f6e74726163740000006064820152608401610da0565b60006134c685611183565b90508083111561352e5760405162461bcd60e51b815260206004820152602d60248201527f4c53315374616b696e673a205769746864726177206578636565647320696e6160448201526c63746976652062616c616e636560981b6064820152608401610da0565b6135388584614a0f565b61356c6001600160a01b037f0000000000000000000000000000000000000000000000000000000000000000168585613c6b565b60405183815260009033907fddf252ad1be2c89b69c2b068fc378daa952ba7f163c4a11628f55a4df523b3ef9060200160405180910390a3604080516001600160a01b038681168252602082018690528716917fbf9f95bf497ae5d5ff5cb03e5de74cd8bd66f1b3b42a02cfee135021630eeb0a910160405180910390a25050505050565b60006135fe8260006145e6565b50506001600160a01b0316600090815260ac602052604090205490565b6000806136278361107d565b9050600061363484611eab565b905060006136428383613423565b9050600061364e6112b4565b156136625761365b610df9565b905061366d565b61366a611333565b90505b61182d612710611c948385612bf8565b6000613688846135f1565b9050808211156136ee5760405162461bcd60e51b815260206004820152602b60248201527f4c53315374616b696e673a20576974686472617720646562742065786365656460448201526a1cc81919589d081bddd95960aa1b6064820152608401610da0565b60af548083111561375c5760405162461bcd60e51b815260206004820152603260248201527f4c53315374616b696e673a2057697468647261772064656274206578636565646044820152717320616d6f756e7420617661696c61626c6560701b6064820152608401610da0565b60006137688385612ecc565b905060006137768386612ecc565b6001600160a01b03808916600090815260ac6020526040902084905560af8290559091506137c7907f0000000000000000000000000000000000000000000000000000000000000000168787613c6b565b604080516001600160a01b03888116825260208201889052918101849052908816907f5a1ff5257f28ea33661698b61831b8a24b3893378e7bc86567df5919faf4b9eb9060600160405180910390a250505050505050565b6040516001600160a01b0380851660248301528316604482015260648101829052611c649085906323b872dd60e01b906084015b60408051601f198184030181529190526020810180516001600160e01b03166001600160e01b031990931692909217909152614a28565b6138a2600080516020615bc283398151915233614afa565b6138ba600080516020615b8283398151915233614afa565b6138d2600080516020615be283398151915233614afa565b6138ea600080516020615c2283398151915233614afa565b613902600080516020615bc283398151915280614b04565b613928600080516020615b82833981519152600080516020615bc2833981519152614b04565b61394e600080516020615be2833981519152600080516020615bc2833981519152614b04565b613974600080516020615c22833981519152600080516020615bc2833981519152614b04565b6139ac7f36dc7495d0ae0bc2a620bf292049e4d4e5f800043895b13c08a1977d3a3297f5600080516020615bc2833981519152614b04565b6139d2600080516020615ba2833981519152600080516020615bc2833981519152614b04565b6139f8600080516020615c02833981519152600080516020615bc2833981519152614b04565b565b814210613a605760405162461bcd60e51b815260206004820152602e60248201527f4c533145706f63685363686564756c653a2045706f6368207a65726f206d757360448201526d7420626520696e2066757475726560901b6064820152608401610da0565b60998190556040518181527fb94332f70bda7d9f80755fda0fee46f9fb73433eb08054c482d060b9732a5e379060200160405180910390a161132e83836129f1565b613ad4613acf427f0000000000000000000000000000000000000000000000000000000000000000614b4f565b614b5f565b609c601c6101000a81548163ffffffff021916908363ffffffff160217905550565b6040518060600160405280600061ffff168152602001613b17612710614581565b6001600160801b03168152602001613b30612710614581565b6001600160801b039081169091526000805260a7602090815282517f482a15fa657494d812cb53702969338141108bdf58f2956e51e63f99ac61431280549285015161ffff1990931661ffff9092169190911762010000600160901b03191662010000928416929092029190911790556040909101517f482a15fa657494d812cb53702969338141108bdf58f2956e51e63f99ac61431380546001600160801b03191691909216179055565b60006116e28284615a8b565b600080613bf3612aaa565b90506000613c028560016145e6565b9050613c0f858284614bc4565b506110748585614bdd565b609854613c30906001600160801b031682614429565b60998190556040518181527fb94332f70bda7d9f80755fda0fee46f9fb73433eb08054c482d060b9732a5e379060200160405180910390a150565b6040516001600160a01b03831660248201526044810182905261132e90849063a9059cbb60e01b90606401613853565b613ca481614c99565b50609b8290556040518281527ffd301ea009c64d5832f2d8f8d8f632dda101449dd7bab7e219a7d4fe924f190a9060200160405180910390a15050565b6000613cef85612710612bf8565b90506000805b83811015613ea4576000858583818110613d1f57634e487b7160e01b600052603260045260246000fd5b9050602002016020810190613d3491906156d0565b6001600160a01b038116600090815260a86020526040812054919250613d5c82612710612bf8565b90506000613d698461107d565b90506000613d778b83612bf8565b9050808311613d8a575050505050613e92565b6000613d968483612ecc565b9050613da2818a613423565b90506000613db282612710614ca5565b6001600160a01b038816600090815260ad602052604081205491925090613dd99083612c04565b90506000613de78884612ecc565b6001600160a01b038a16600081815260ad6020908152604080832087905560a88252918290208490558151878152908101849052908101859052919250907f6f23fe7b66362519778c3b1c17137fac83dc3b06d7599bf330071ff0d4d78bd49060600160405180910390a2613e5c8b84612c04565b9a50613e69896001614201565b613e738c85612ecc565b9b508b613e8857505050505050505050613ea4565b5050505050505050505b80613e9c81615b18565b915050613cf5565b508115613f195760405162461bcd60e51b815260206004820152603760248201527f4c5331446562744163636f756e74696e673a20426f72726f7765727320646f2060448201527f6e6f7420636f766572207468652073686f727466616c6c0000000000000000006064820152608401610da0565b60a954613f269082612ecc565b60a95560ae54613f369082612c04565b60ae55505050505050565b6000613f4b6125c0565b905060008083831115613f8457613f628385612ecc565b9150613f8183611c946ec097ce7bc90715b34b9f100000000085612bf8565b90505b6000613f908484612ecc565b9050613f9c8183614cd1565b60408051828152602081018490529081018490527f078672352c8b5c2f37110035ae76edec256b83a0b573905c762af04ebe0b418e9060600160405180910390a15050505050565b60008060005b858110156141a957600087878381811061401457634e487b7160e01b600052603260045260246000fd5b905060200201602081019061402991906156d0565b9050600086868481811061404d57634e487b7160e01b600052603260045260246000fd5b905060200201359050600061406183612c10565b60208101519091506001600160801b031661407b83614581565b6001600160801b03166040830152600061409361277b565b156140b05782516140a99061ffff166001612c04565b90506140c8565b6140b984614581565b6001600160801b031660208401525b6001600160a01b038516600081815260a76020908152604091829020865181548884015161ffff1990911661ffff9092169190911762010000600160901b031916620100006001600160801b039283160217825587840151600190920180546001600160801b0319169290911691909117905581518581529081018790529081018390527fec9d5b9e8a94d2de1e086e2a5ea44472bf803a5481575b7a5685b0b8be9537de9060600160405180910390a26141838883612c04565b975061418f8785612c04565b9650505050505080806141a190615b18565b915050613fea565b508082146141f95760405162461bcd60e51b815260206004820152601f60248201527f4c5331426f72726f776572416c6c6f636174696f6e733a20496e76616c6964006044820152606401610da0565b505050505050565b6001600160a01b038216600090815260aa602052604090205460ff168015158215151461132e576001600160a01b038316600081815260aa6020908152604091829020805460ff191686151590811790915591519182527f16a89156280b4b0c2ec1a3fc5a0796b9fb93282b073129dc05c4734d037189339101612d43565b600081156142bd576001600160a01b038316156142b557506001600160a01b038216600090815260a06020526040902061102a565b5060a161102a565b6001600160a01b038316156142ea57506001600160a01b038216600090815260a36020526040902061102a565b5060a492915050565b80518254602083015161ffff1990911661ffff9283161762010000600160901b031916620100006001600160801b03928316021784556040830151600190940180546060909401516001600160801b0319909416949091169390931761ffff60801b1916600160801b9290911691909102179055565b60006201000082106143cc5760405162461bcd60e51b815260206004820152602660248201527f53616665436173743a2076616c756520646f65736e27742066697420696e203160448201526536206269747360d01b6064820152608401610da0565b5090565b6143da8282611d33565b61141a576143e781614d68565b6143f2836020614d7a565b60405160200161440392919061595d565b60408051601f198184030181529082905262461bcd60e51b8252610da0916004016159d2565b81614435826002612bf8565b11156144b85760405162461bcd60e51b815260206004820152604660248201527f4c533145706f63685363686564756c653a20426c61636b6f75742077696e646f60448201527f772063616e206265206174206d6f73742068616c66207468652065706f6368206064820152650d8cadccee8d60d31b608482015260a401610da0565b603c81101561451d5760405162461bcd60e51b815260206004820152602b60248201527f4c533145706f63685363686564756c653a20426c61636b6f75742077696e646f60448201526a7720746f6f206c6172676560a81b6064820152608401610da0565b62794a0082111561141a5760405162461bcd60e51b815260206004820152602860248201527f4c533145706f63685363686564756c653a2045706f6368206c656e67746820746044820152671bdbc81cdb585b1b60c21b6064820152608401610da0565b6000600160801b82106143cc5760405162461bcd60e51b815260206004820152602760248201527f53616665436173743a2076616c756520646f65736e27742066697420696e20316044820152663238206269747360c81b6064820152608401610da0565b6000806145f38484614280565b90506000614602828686614f5c565b60208101519091506001600160801b031661107483836142f3565b60408051608081018252600080825260208201819052918101829052606081019190915260408051608081018252855461ffff80821683526001600160801b036201000090920482166020840152600188015491821693830193909352600160801b90049091166060820152600061469361211d565b825190915061ffff168085108015906146ac5750818511155b6146f85760405162461bcd60e51b815260206004820152601b60248201527f4c53315374616b656442616c616e6365733a206d617845706f636800000000006044820152606401610da0565b60006147038461482d565b9094509050818611156147505761471986614369565b61ffff16845260408401516001600160801b03166020850152600061473d8561482d565b909550905061474c8282612c04565b9150505b80156147d5576001600160a01b038716600090815260ac60205260408120546147799083612c04565b6001600160a01b038916600081815260ac6020908152604091829020849055815186815290810184905292935090917f71c72955ef680134ee20de5924643f2e78afe2d3c76e6faf6a218c00b2dc26d0910160405180910390a2505b50919695505050505050565b60006147eb612aaa565b905060006147fb85600185615098565b9050600061480b8560018661510e565b9050614818868385614bc4565b50614824858285614bc4565b50505050505050565b604080516080810182526000808252602082018190529181018290526060810191909152606082015160a65460009161ffff16908082141561487757846000935093505050612ffd565b845160208601516001600160801b0316805b8385101561493f57600060a686815481106148b457634e487b7160e01b600052603260045260246000fd5b60009182526020918290206040805180820190915291015461ffff808216808452620100009092046001600160e01b03169383019390935290925090851610156148fe575061493f565b60208101516001600160e01b03166149296ec097ce7bc90715b34b9f1000000000611c948584612bf8565b9250614936876001612c04565b96505050614889565b600061494b8383612ecc565b905061495682614581565b6001600160801b0390811660208b015260408a015161497f9161497a911683612ecc565b614581565b6001600160801b031660408a015261499686614369565b61ffff1660608a015297989650505050505050565b60006149ba600060018461510e565b905060006149ca8460018561510e565b90506149d7848284614bc4565b5050505050565b6149eb600060018361516c565b6149f78260018361516c565b614a03600080836151c4565b61141a826000836151c4565b614a1b60008083615098565b5061132e82600083615098565b6000614a7d826040518060400160405280602081526020017f5361666545524332303a206c6f772d6c6576656c2063616c6c206661696c6564815250856001600160a01b03166152049092919063ffffffff16565b80519091501561132e5780806020019051810190614a9b919061585f565b61132e5760405162461bcd60e51b815260206004820152602a60248201527f5361666545524332303a204552433230206f7065726174696f6e20646964206e6044820152691bdd081cdd58d8d9595960b21b6064820152608401610da0565b61141a828261317d565b600082815260656020526040808220600101805490849055905190918391839186917fbd79b86ffe0ab8e8776151514217cd7cacd52c909f66475c3af44e129f0b00ff9190a4505050565b60008183101561343257816116e2565b600064010000000082106143cc5760405162461bcd60e51b815260206004820152602660248201527f53616665436173743a2076616c756520646f65736e27742066697420696e203360448201526532206269747360d01b6064820152608401610da0565b600080614bd083614c99565b9050611074858583615213565b6001600160a01b038083166000908152609e602052604081208054908290559091614c4c907f0000000000000000000000000000000000000000000000000000000000000000167f0000000000000000000000000000000000000000000000000000000000000000858461381f565b604080516001600160a01b038581168252602082018490528616917f2ef606d064225d24c1514dc94907c134faee1237445c2f63f410cce0852b2054910160405180910390a29392505050565b6000610df18242615306565b600082614cbe57614cb7600083613bdc565b905061102a565b6116e2600161106e84611c948784612ecc565b614cdd60008084615098565b5060a66040518060400160405280614cfb614cf661211d565b614369565b61ffff168152602001614d0d84614581565b6001600160801b031690528154600181018355600092835260209283902082519101805492909301516001600160e01b0316620100000262010000600160f01b031961ffff90921661ffff1990931692909217161790555050565b6060610df16001600160a01b03831660145b60606000614d89836002615a9f565b614d94906002615a73565b67ffffffffffffffff811115614dba57634e487b7160e01b600052604160045260246000fd5b6040519080825280601f01601f191660200182016040528015614de4576020820181803683370190505b509050600360fc1b81600081518110614e0d57634e487b7160e01b600052603260045260246000fd5b60200101906001600160f81b031916908160001a905350600f60fb1b81600181518110614e4a57634e487b7160e01b600052603260045260246000fd5b60200101906001600160f81b031916908160001a9053506000614e6e846002615a9f565b614e79906001615a73565b90505b6001811115614f0d576f181899199a1a9b1b9c1cb0b131b232b360811b85600f1660108110614ebb57634e487b7160e01b600052603260045260246000fd5b1a60f81b828281518110614edf57634e487b7160e01b600052603260045260246000fd5b60200101906001600160f81b031916908160001a90535060049490941c93614f0681615b01565b9050614e7c565b5083156116e25760405162461bcd60e51b815260206004820181905260248201527f537472696e67733a20686578206c656e67746820696e73756666696369656e746044820152606401610da0565b6040805160808101825260008082526020820181905291810182905260608101919091528115614fda57600080600080614f9588612900565b93509350935093508015614fce576001600160a01b038716614fc157614fbb82846154bb565b50614fce565b614fcc8783856154f5565b505b839450505050506116e2565b6001600160a01b038316614ff857614ff184613203565b90506116e2565b60008061500486612ed8565b915091508060001461508f576001600160a01b038516600090815260ac60205260408120546150339083612c04565b6001600160a01b038716600081815260ac6020908152604091829020849055815186815290810184905292935090917f71c72955ef680134ee20de5924643f2e78afe2d3c76e6faf6a218c00b2dc26d0910160405180910390a2505b50949350505050565b6000806150a58585614280565b905060006150b4828787614f5c565b60208101519091506001600160801b03166150d261497a8287612ecc565b6001600160801b03908116602084015260408301516150f69161497a911687612ecc565b6001600160801b0316604083015261182d83836142f3565b60008061511b8585614280565b9050600061512a828787614f5c565b60208101519091506001600160801b031661514861497a8287612c04565b6001600160801b03908116602084015260408301516150f69161497a911687612c04565b60006151788484614280565b90506000615187828686614f5c565b90506151ac61497a8483604001516001600160801b0316612ecc90919063ffffffff16565b6001600160801b031660408201526149d782826142f3565b60006151d08484614280565b905060006151df828686614f5c565b90506151ac61497a8483604001516001600160801b0316612c0490919063ffffffff16565b606061150f848460008561550f565b6001600160a01b0383166000908152609e6020908152604080832054609d90925282205483811415615247575090506116e2565b6000856152555750816152a7565b60006152618684612ecc565b9050600061527b670de0b6b3a7640000611c948a85612bf8565b90506152878582612c04565b6001600160a01b038a166000908152609e60205260409020819055925050505b6001600160a01b0387166000818152609d602090815260409182902088905581518881529081018490527ff2c02e23a652c66023e40b9cf4d657ebb15f9235c261a02f740a9fd7a0e5bed2910160405180910390a29695505050505050565b609c546000906001600160e01b03811690600160e01b900463ffffffff168261534f857f0000000000000000000000000000000000000000000000000000000000000000613423565b90508181116153635782935050505061102a565b609b54801580615371575086155b156153e25761537f82614b5f565b609c805463ffffffff92909216600160e01b026001600160e01b039092169190911790556040518481527fb9b54fb40571ef7044b07522f579f84f94c6a561ca45129676901ff7781f6d0d9060200160405180910390a18394505050505061102a565b60006153ee8385612ecc565b9050600061541289611c94670de0b6b3a764000061540c8688612bf8565b90612bf8565b905060006154208783612c04565b905061542b85614b5f565b609c601c6101000a81548163ffffffff021916908363ffffffff16021790555061545481614581565b609c80546001600160e01b0319166001600160801b03929092169190911790556040517fb9b54fb40571ef7044b07522f579f84f94c6a561ca45129676901ff7781f6d0d906154a69083815260200190565b60405180910390a19998505050505050505050565b6000806154cc610644846001612c04565b905060006154da8583615306565b6000858152609f602052604090208190559250505092915050565b6000818152609f6020526040812054611074858583615213565b6060824710156155705760405162461bcd60e51b815260206004820152602660248201527f416464726573733a20696e73756666696369656e742062616c616e636520666f6044820152651c8818d85b1b60d21b6064820152608401610da0565b843b6155be5760405162461bcd60e51b815260206004820152601d60248201527f416464726573733a2063616c6c20746f206e6f6e2d636f6e74726163740000006044820152606401610da0565b600080866001600160a01b031685876040516155da9190615941565b60006040518083038185875af1925050503d8060008114615617576040519150601f19603f3d011682016040523d82523d6000602084013e61561c565b606091505b509150915061562c828286615637565b979650505050505050565b606083156156465750816116e2565b8251156156565782518084602001fd5b8160405162461bcd60e51b8152600401610da091906159d2565b80356001600160a01b0381168114610df457600080fd5b60008083601f840112615698578182fd5b50813567ffffffffffffffff8111156156af578182fd5b60208301915083602080830285010111156156c957600080fd5b9250929050565b6000602082840312156156e1578081fd5b6116e282615670565b600080604083850312156156fc578081fd5b61570583615670565b915061571360208401615670565b90509250929050565b600080600060608486031215615730578081fd5b61573984615670565b925061574760208501615670565b9150604084013590509250925092565b60008060408385031215615769578182fd5b61577283615670565b9150602083013561578281615b73565b809150509250929050565b6000806040838503121561579f578182fd5b6157a883615670565b946020939093013593505050565b600080602083850312156157c8578182fd5b823567ffffffffffffffff8111156157de578283fd5b6157ea85828601615687565b90969095509350505050565b6000806000806040858703121561580b578081fd5b843567ffffffffffffffff80821115615822578283fd5b61582e88838901615687565b90965094506020870135915080821115615846578283fd5b5061585387828801615687565b95989497509550505050565b600060208284031215615870578081fd5b81516116e281615b73565b60006020828403121561588c578081fd5b5035919050565b600080604083850312156158a5578182fd5b8235915061571360208401615670565b6000602082840312156158c6578081fd5b81356001600160e01b0319811681146116e2578182fd5b6000602082840312156158ee578081fd5b5051919050565b60008060408385031215615907578182fd5b50508035926020909101359150565b60008060006060848603121561592a578283fd5b505081359360208301359350604090920135919050565b60008251615953818460208701615ad5565b9190910192915050565b60007f416363657373436f6e74726f6c3a206163636f756e742000000000000000000082528351615995816017850160208801615ad5565b7001034b99036b4b9b9b4b733903937b6329607d1b60179184019182015283516159c6816028840160208801615ad5565b01602801949350505050565b60006020825282518060208401526159f1816040850160208701615ad5565b601f01601f19169190910160400192915050565b60208082526019908201527f4c533141646d696e3a20426c61636b6f75742077696e646f7700000000000000604082015260600190565b6020808252601f908201527f5265656e7472616e637947756172643a207265656e7472616e742063616c6c00604082015260600190565b60008219821115615a8657615a86615b47565b500190565b600082615a9a57615a9a615b5d565b500490565b6000816000190483118215151615615ab957615ab9615b47565b500290565b600082821015615ad057615ad0615b47565b500390565b60005b83811015615af0578181015183820152602001615ad8565b83811115611c645750506000910152565b600081615b1057615b10615b47565b506000190190565b6000600019821415615b2c57615b2c615b47565b5060010190565b600082615b4257615b42615b5d565b500690565b634e487b7160e01b600052601160045260246000fd5b634e487b7160e01b600052601260045260246000fd5b80151581146129ee57600080fdfea69ba352872fe0ee634bc8d48d2a09a61267da1bfb2015e67a11ad05fe21f04ba6fbd0d4ef0ac50b4de984ab8f303863596293cce6d67dd6111979bcf56abe74b19546dff01e856fb3f010c267a7b1c60363cf8a4664e21cc89c26224620214e74ec845281a5bcabeef9a800a79d30928ff9e6f2dc6f69a233fc39a83cb81ed20428e137352b5b1a834770c71b580c01521c0b3f2442928c650692cd1b3f496c6c2e489c3a95017c97c0bcc47de38933a0bbf2041c9289b8ca34c445b13177afa26469706673582212207b22f9f0ea7b053b1f352f157bcbf6dece4f3fdd92627f1bbe0542bbe7fb1a8264736f6c63430008020033",
  "linkReferences": {},
  "deployedLinkReferences": {}
}