{
  "_format": "hh-sol-artifact-1",
  "contractName": "TreasuryVester",
  "sourceName": "contracts/treasury/TreasuryVester.sol",
  "abi": [
    {
      "inputs": [
        {
          "internalType": "address",
          "name": "dydx_",
          "type": "address"
        },
        {
          "internalType": "address",
          "name": "recipient_",
          "type": "address"
        },
        {
          "internalType": "uint256",
          "name": "vestingAmount_",
          "type": "uint256"
        },
        {
          "internalType": "uint256",
          "name": "vestingBegin_",
          "type": "uint256"
        },
        {
          "internalType": "uint256",
          "name": "vestingCliff_",
          "type": "uint256"
        },
        {
          "internalType": "uint256",
          "name": "vestingEnd_",
          "type": "uint256"
        }
      ],
      "stateMutability": "nonpayable",
      "type": "constructor"
    },
    {
      "inputs": [],
      "name": "claim",
      "outputs": [],
      "stateMutability": "nonpayable",
      "type": "function"
    },
    {
      "inputs": [],
      "name": "dydx",
      "outputs": [
        {
          "internalType": "address",
          "name": "",
          "type": "address"
        }
      ],
      "stateMutability": "view",
      "type": "function"
    },
    {
      "inputs": [],
      "name": "lastUpdate",
      "outputs": [
        {
          "internalType": "uint256",
          "name": "",
          "type": "uint256"
        }
      ],
      "stateMutability": "view",
      "type": "function"
    },
    {
      "inputs": [],
      "name": "recipient",
      "outputs": [
        {
          "internalType": "address",
          "name": "",
          "type": "address"
        }
      ],
      "stateMutability": "view",
      "type": "function"
    },
    {
      "inputs": [
        {
          "internalType": "address",
          "name": "recipient_",
          "type": "address"
        }
      ],
      "name": "setRecipient",
      "outputs": [],
      "stateMutability": "nonpayable",
      "type": "function"
    },
    {
      "inputs": [],
      "name": "vestingAmount",
      "outputs": [
        {
          "internalType": "uint256",
          "name": "",
          "type": "uint256"
        }
      ],
      "stateMutability": "view",
      "type": "function"
    },
    {
      "inputs": [],
      "name": "vestingBegin",
      "outputs": [
        {
          "internalType": "uint256",
          "name": "",
          "type": "uint256"
        }
      ],
      "stateMutability": "view",
      "type": "function"
    },
    {
      "inputs": [],
      "name": "vestingCliff",
      "outputs": [
        {
          "internalType": "uint256",
          "name": "",
          "type": "uint256"
        }
      ],
      "stateMutability": "view",
      "type": "function"
    },
    {
      "inputs": [],
      "name": "vestingEnd",
      "outputs": [
        {
          "internalType": "uint256",
          "name": "",
          "type": "uint256"
        }
      ],
      "stateMutability": "view",
      "type": "function"
    }
  ],
  "bytecode": "0x608060405234801561001057600080fd5b506040516107a73803806107a783398101604081905261002f916100ff565b428310156100585760405162461bcd60e51b815260040161004f906101c4565b60405180910390fd5b828210156100785760405162461bcd60e51b815260040161004f9061018d565b8181116100975760405162461bcd60e51b815260040161004f90610156565b600080546001600160a01b039788166001600160a01b031991821617909155600180549690971695169490941790945560029190915560038190556004929092556005556006556101fb565b80516001600160a01b03811681146100fa57600080fd5b919050565b60008060008060008060c08789031215610117578182fd5b610120876100e3565b955061012e602088016100e3565b945060408701519350606087015192506080870151915060a087015190509295509295509295565b60208082526018908201527f56455354494e475f454e445f4245464f52455f434c4946460000000000000000604082015260600190565b6020808252601a908201527f56455354494e475f434c4946465f4245464f52455f424547494e000000000000604082015260600190565b60208082526017908201527f56455354494e475f424547494e5f544f4f5f4541524c59000000000000000000604082015260600190565b61059d8061020a6000396000f3fe608060405234801561001057600080fd5b50600436106100925760003560e01c806384a1931f1161006657806384a1931f146100e75780638e4ec6ef146100ef578063c0463711146100f7578063e29bc68b146100ff578063f3640e741461010757610092565b8062728f76146100975780633bbed4a0146100b55780634e71d92d146100ca57806366d003ac146100d2575b600080fd5b61009f61010f565b6040516100ac919061053d565b60405180910390f35b6100c86100c3366004610451565b610115565b005b6100c861016a565b6100da6102da565b6040516100ac91906104b0565b61009f6102e9565b6100da6102ef565b61009f6102fe565b61009f610304565b61009f61030a565b60025481565b6001546001600160a01b031633146101485760405162461bcd60e51b815260040161013f906104dd565b60405180910390fd5b600180546001600160a01b0319166001600160a01b0392909216919091179055565b60045442101561018c5760405162461bcd60e51b815260040161013f90610514565b6000600554421061021e576000546040516370a0823160e01b81526001600160a01b03909116906370a08231906101c79030906004016104b0565b60206040518083038186803b1580156101df57600080fd5b505afa1580156101f3573d6000803e3d6000fd5b505050506040513d601f19601f820116820180604052508101906102179190610498565b905061024e565b61024760035460055403610241600654420360025461031090919063ffffffff16565b90610372565b4260065590505b60005460015460405163a9059cbb60e01b81526001600160a01b039283169263a9059cbb926102849291169085906004016104c4565b602060405180830381600087803b15801561029e57600080fd5b505af11580156102b2573d6000803e3d6000fd5b505050506040513d601f19601f820116820180604052508101906102d69190610478565b5050565b6001546001600160a01b031681565b60055481565b6000546001600160a01b031681565b60065481565b60035481565b60045481565b60008261031f5750600061036c565b8282028284828161032c57fe5b04146103695760405162461bcd60e51b81526004018080602001828103825260218152602001806105476021913960400191505060405180910390fd5b90505b92915050565b600061036983836040518060400160405280601a81526020017f536166654d6174683a206469766973696f6e206279207a65726f0000000000008152506000818361043b5760405162461bcd60e51b81526004018080602001828103825283818151815260200191508051906020019080838360005b838110156104005781810151838201526020016103e8565b50505050905090810190601f16801561042d5780820380516001836020036101000a031916815260200191505b509250505060405180910390fd5b50600083858161044757fe5b0495945050505050565b600060208284031215610462578081fd5b81356001600160a01b0381168114610369578182fd5b600060208284031215610489578081fd5b81518015158114610369578182fd5b6000602082840312156104a9578081fd5b5051919050565b6001600160a01b0391909116815260200190565b6001600160a01b03929092168252602082015260400190565b6020808252601a908201527f5345545f524543495049454e545f554e415554484f52495a4544000000000000604082015260600190565b6020808252600f908201526e434c41494d5f544f4f5f4541524c5960881b604082015260600190565b9081526020019056fe536166654d6174683a206d756c7469706c69636174696f6e206f766572666c6f77a26469706673582212201f84deccb2be418c23078175c2f3b7262a50db4137e5452ccf9cf98c38383d6264736f6c63430007050033",
  "linkReferences": {},
  "deployedLinkReferences": {}
}