{
  "_format": "hh-sol-artifact-1",
  "contractName": "Treasury",
  "sourceName": "contracts/treasury/Treasury.sol",
  "abi": [
    {
      "anonymous": false,
      "inputs": [
        {
          "indexed": true,
          "internalType": "address",
          "name": "previousOwner",
          "type": "address"
        },
        {
          "indexed": true,
          "internalType": "address",
          "name": "newOwner",
          "type": "address"
        }
      ],
      "name": "OwnershipTransferred",
      "type": "event"
    },
    {
      "inputs": [],
      "name": "REVISION",
      "outputs": [
        {
          "internalType": "uint256",
          "name": "",
          "type": "uint256"
        }
      ],
      "stateMutability": "view",
      "type": "function"
    },
    {
      "inputs": [
        {
          "internalType": "contract IERC20",
          "name": "token",
          "type": "address"
        },
        {
          "internalType": "address",
          "name": "recipient",
          "type": "address"
        },
        {
          "internalType": "uint256",
          "name": "amount",
          "type": "uint256"
        }
      ],
      "name": "approve",
      "outputs": [],
      "stateMutability": "nonpayable",
      "type": "function"
    },
    {
      "inputs": [],
      "name": "initialize",
      "outputs": [],
      "stateMutability": "nonpayable",
      "type": "function"
    },
    {
      "inputs": [],
      "name": "owner",
      "outputs": [
        {
          "internalType": "address",
          "name": "",
          "type": "address"
        }
      ],
      "stateMutability": "view",
      "type": "function"
    },
    {
      "inputs": [],
      "name": "renounceOwnership",
      "outputs": [],
      "stateMutability": "nonpayable",
      "type": "function"
    },
    {
      "inputs": [
        {
          "internalType": "contract IERC20",
          "name": "token",
          "type": "address"
        },
        {
          "internalType": "address",
          "name": "recipient",
          "type": "address"
        },
        {
          "internalType": "uint256",
          "name": "amount",
          "type": "uint256"
        }
      ],
      "name": "transfer",
      "outputs": [],
      "stateMutability": "nonpayable",
      "type": "function"
    },
    {
      "inputs": [
        {
          "internalType": "address",
          "name": "newOwner",
          "type": "address"
        }
      ],
      "name": "transferOwnership",
      "outputs": [],
      "stateMutability": "nonpayable",
      "type": "function"
    }
  ],
  "bytecode": "0x608060405234801561001057600080fd5b5061097d806100206000396000f3fe608060405234801561001057600080fd5b506004361061007d5760003560e01c8063beabacc81161005b578063beabacc8146100b2578063dde43cba146100c5578063e1f21c67146100da578063f2fde38b146100ed5761007d565b8063715018a6146100825780638129fc1c1461008c5780638da5cb5b14610094575b600080fd5b61008a610100565b005b61008a6101ac565b61009c610208565b6040516100a99190610841565b60405180910390f35b61008a6100c0366004610801565b610217565b6100cd610292565b6040516100a99190610855565b61008a6100e8366004610801565b610297565b61008a6100fb3660046107de565b610322565b610108610424565b6001600160a01b0316610119610208565b6001600160a01b031614610162576040805162461bcd60e51b8152602060048201819052602482015260008051602061089a833981519152604482015290519081900360640190fd5b600080546040516001600160a01b03909116907f8be0079c531659141344cd1fd0a4f28419497f9722a3daafe3b4186f6b6457e0908390a3600080546001600160a01b0319169055565b60006101b6610428565b905060325481116101f85760405162461bcd60e51b815260040180806020018281038252602e8152602001806108ba602e913960400191505060405180910390fd5b603281905561020561042d565b50565b6000546001600160a01b031690565b61021f610424565b6001600160a01b0316610230610208565b6001600160a01b031614610279576040805162461bcd60e51b8152602060048201819052602482015260008051602061089a833981519152604482015290519081900360640190fd5b61028d6001600160a01b0384168383610483565b505050565b600181565b61029f610424565b6001600160a01b03166102b0610208565b6001600160a01b0316146102f9576040805162461bcd60e51b8152602060048201819052602482015260008051602061089a833981519152604482015290519081900360640190fd5b61030e6001600160a01b0384168360006104d5565b61028d6001600160a01b03841683836104d5565b61032a610424565b6001600160a01b031661033b610208565b6001600160a01b031614610384576040805162461bcd60e51b8152602060048201819052602482015260008051602061089a833981519152604482015290519081900360640190fd5b6001600160a01b0381166103c95760405162461bcd60e51b81526004018080602001828103825260268152602001806108746026913960400191505060405180910390fd5b600080546040516001600160a01b03808516939216917f8be0079c531659141344cd1fd0a4f28419497f9722a3daafe3b4186f6b6457e091a3600080546001600160a01b0319166001600160a01b0392909216919091179055565b3390565b600190565b6000610437610424565b600080546001600160a01b0319166001600160a01b0383169081178255604051929350917f8be0079c531659141344cd1fd0a4f28419497f9722a3daafe3b4186f6b6457e0908290a350565b604080516001600160a01b038416602482015260448082018490528251808303909101815260649091019091526020810180516001600160e01b031663a9059cbb60e01b17905261028d9084906105e4565b80158061055b575060408051636eb1769f60e11b81523060048201526001600160a01b03848116602483015291519185169163dd62ed3e91604480820192602092909190829003018186803b15801561052d57600080fd5b505afa158015610541573d6000803e3d6000fd5b505050506040513d602081101561055757600080fd5b5051155b6105965760405162461bcd60e51b81526004018080602001828103825260368152602001806109126036913960400191505060405180910390fd5b604080516001600160a01b038416602482015260448082018490528251808303909101815260649091019091526020810180516001600160e01b031663095ea7b360e01b17905261028d9084905b6105f6826001600160a01b03166107a2565b610647576040805162461bcd60e51b815260206004820152601f60248201527f5361666545524332303a2063616c6c20746f206e6f6e2d636f6e747261637400604482015290519081900360640190fd5b60006060836001600160a01b0316836040518082805190602001908083835b602083106106855780518252601f199092019160209182019101610666565b6001836020036101000a0380198251168184511680821785525050505050509050019150506000604051808303816000865af19150503d80600081146106e7576040519150601f19603f3d011682016040523d82523d6000602084013e6106ec565b606091505b509150915081610743576040805162461bcd60e51b815260206004820181905260248201527f5361666545524332303a206c6f772d6c6576656c2063616c6c206661696c6564604482015290519081900360640190fd5b80511561079c5780806020019051602081101561075f57600080fd5b505161079c5760405162461bcd60e51b815260040180806020018281038252602a8152602001806108e8602a913960400191505060405180910390fd5b50505050565b6000813f7fc5d2460186f7233c927e7db2dcc703c0e500b653ca82273b7bfad8045d85a4708181148015906107d657508115155b949350505050565b6000602082840312156107ef578081fd5b81356107fa8161085e565b9392505050565b600080600060608486031215610815578182fd5b83356108208161085e565b925060208401356108308161085e565b929592945050506040919091013590565b6001600160a01b0391909116815260200190565b90815260200190565b6001600160a01b038116811461020557600080fdfe4f776e61626c653a206e6577206f776e657220697320746865207a65726f20616464726573734f776e61626c653a2063616c6c6572206973206e6f7420746865206f776e6572436f6e747261637420696e7374616e63652068617320616c7265616479206265656e20696e697469616c697a65645361666545524332303a204552433230206f7065726174696f6e20646964206e6f7420737563636565645361666545524332303a20617070726f76652066726f6d206e6f6e2d7a65726f20746f206e6f6e2d7a65726f20616c6c6f77616e6365a2646970667358221220f6e32a0745cf0babc5ac8069b2469fb929bdaaa012c2eea99ef97c84b84e677a64736f6c63430007050033",
  "linkReferences": {},
  "deployedLinkReferences": {}
}